{
  "_format": "hh-sol-artifact-1",
  "contractName": "CoinVest",
  "sourceName": "contracts/vestcoin.sol",
  "abi": [
    {
      "inputs": [],
      "name": "claimTokens",
      "outputs": [],
      "stateMutability": "nonpayable",
      "type": "function"
    },
    {
      "inputs": [
        {
          "internalType": "address",
          "name": "_stakeholderAddr",
          "type": "address"
        }
      ],
      "name": "claimTokensFor",
      "outputs": [],
      "stateMutability": "nonpayable",
      "type": "function"
    },
    {
      "inputs": [],
      "name": "getOrgs",
      "outputs": [
        {
          "internalType": "address[]",
          "name": "",
          "type": "address[]"
        }
      ],
      "stateMutability": "view",
      "type": "function"
    },
    {
      "inputs": [
        {
          "internalType": "string",
          "name": "_orgName",
          "type": "string"
        },
        {
          "internalType": "string",
          "name": "_symbol",
          "type": "string"
        },
        {
          "internalType": "uint256",
          "name": "_totalSupply",
          "type": "uint256"
        }
      ],
      "name": "orgToken",
      "outputs": [
        {
          "internalType": "bool",
          "name": "",
          "type": "bool"
        }
      ],
      "stateMutability": "nonpayable",
      "type": "function"
    },
    {
      "inputs": [
        {
          "internalType": "address",
          "name": "",
          "type": "address"
        }
      ],
      "name": "orgTokenBalances",
      "outputs": [
        {
          "internalType": "uint256",
          "name": "",
          "type": "uint256"
        }
      ],
      "stateMutability": "view",
      "type": "function"
    },
    {
      "inputs": [
        {
          "internalType": "address",
          "name": "",
          "type": "address"
        }
      ],
      "name": "orgTokenDetail",
      "outputs": [
        {
          "internalType": "address",
          "name": "",
          "type": "address"
        }
      ],
      "stateMutability": "view",
      "type": "function"
    },
    {
      "inputs": [
        {
          "internalType": "address",
          "name": "",
          "type": "address"
        }
      ],
      "name": "organisations",
      "outputs": [
        {
          "internalType": "string",
          "name": "name",
          "type": "string"
        },
        {
          "internalType": "address",
          "name": "admin",
          "type": "address"
        },
        {
          "internalType": "string",
          "name": "symbol",
          "type": "string"
        },
        {
          "internalType": "uint256",
          "name": "totalSupply",
          "type": "uint256"
        },
        {
          "internalType": "bool",
          "name": "registered",
          "type": "bool"
        }
      ],
      "stateMutability": "view",
      "type": "function"
    },
    {
      "inputs": [
        {
          "internalType": "uint256",
          "name": "",
          "type": "uint256"
        }
      ],
      "name": "orgs",
      "outputs": [
        {
          "internalType": "address",
          "name": "",
          "type": "address"
        }
      ],
      "stateMutability": "view",
      "type": "function"
    },
    {
      "inputs": [],
      "name": "registerAsOrg",
      "outputs": [],
      "stateMutability": "nonpayable",
      "type": "function"
    },
    {
      "inputs": [
        {
          "internalType": "address",
          "name": "_stakeholderAddr",
          "type": "address"
        },
        {
          "internalType": "string",
          "name": "_tag",
          "type": "string"
        },
        {
          "internalType": "uint256",
          "name": "_amount",
          "type": "uint256"
        },
        {
          "internalType": "uint256",
          "name": "_vestingPeriod",
          "type": "uint256"
        }
      ],
      "name": "setVestingDetails",
      "outputs": [],
      "stateMutability": "nonpayable",
      "type": "function"
    },
    {
      "inputs": [
        {
          "internalType": "address",
          "name": "_stakeholderAddr",
          "type": "address"
        }
      ],
      "name": "setWhitelist",
      "outputs": [],
      "stateMutability": "nonpayable",
      "type": "function"
    },
    {
      "inputs": [
        {
          "internalType": "address",
          "name": "",
          "type": "address"
        }
      ],
      "name": "stakeholderDetails",
      "outputs": [
        {
          "internalType": "address",
          "name": "admin",
          "type": "address"
        },
        {
          "internalType": "string",
          "name": "tag",
          "type": "string"
        },
        {
          "internalType": "uint256",
          "name": "vestingPeriod",
          "type": "uint256"
        },
        {
          "internalType": "bool",
          "name": "isWhitelisted",
          "type": "bool"
        },
        {
          "internalType": "uint256",
          "name": "balanceOfStake",
          "type": "uint256"
        }
      ],
      "stateMutability": "view",
      "type": "function"
    },
    {
      "inputs": [
        {
          "internalType": "address",
          "name": "",
          "type": "address"
        },
        {
          "internalType": "uint256",
          "name": "",
          "type": "uint256"
        }
      ],
      "name": "whitelistedAddresses",
      "outputs": [
        {
          "internalType": "address",
          "name": "",
          "type": "address"
        }
      ],
      "stateMutability": "view",
      "type": "function"
    }
  ],
  "bytecode": "0x608060405234801561001057600080fd5b5061560c806100206000396000f3fe60806040523480156200001157600080fd5b5060043610620000e25760003560e01c80634f5c2e6c11620000995780637e38635f116200006f5780637e38635f146200026b578063854cff2f14620002a1578063ede7677514620002c1578063ee0b04be14620002e357620000e2565b80634f5c2e6c14620001f357806371312b41146200022957806379f3fb7d146200025f57620000e2565b80630aeb3ff114620000e75780630bdece24146200011d57806321437185146200015357806328c7e9cb146200018d578063360d8ebf14620001ad57806348c54b9d14620001e7575b600080fd5b620001056004803603810190620000ff919062001e46565b62000303565b60405162000114919062001e93565b60405180910390f35b6200013b600480360381019062000135919062001ee1565b6200031b565b6040516200014a919062001f39565b60405180910390f35b6200017160048036038101906200016b919062001e46565b6200036a565b604051620001849594939291906200200d565b60405180910390f35b620001ab6004803603810190620001a59190620021c2565b6200045d565b005b620001cb6004803603810190620001c5919062001e46565b62000a78565b604051620001de95949392919062002253565b60405180910390f35b620001f162000bfb565b005b6200021160048036038101906200020b9190620022be565b62000fdf565b60405162000220919062001f39565b60405180910390f35b62000247600480360381019062000241919062001e46565b6200101f565b60405162000256919062001f39565b60405180910390f35b6200026962001052565b005b620002896004803603810190620002839190620022f0565b62001180565b6040516200029891906200238a565b60405180910390f35b620002bf6004803603810190620002b9919062001e46565b620016bb565b005b620002cb6200194d565b604051620002da919062002475565b60405180910390f35b620003016004803603810190620002fb919062001e46565b620019dd565b005b60026020528060005260406000206000915090505481565b600660205281600052604060002081815481106200033857600080fd5b906000526020600020016000915091509054906101000a900473ffffffffffffffffffffffffffffffffffffffff1681565b60056020528060005260406000206000915090508060000160009054906101000a900473ffffffffffffffffffffffffffffffffffffffff1690806001018054620003b590620024c8565b80601f0160208091040260200160405190810160405280929190818152602001828054620003e390620024c8565b8015620004345780601f10620004085761010080835404028352916020019162000434565b820191906000526020600020905b8154815290600101906020018083116200041657829003601f168201915b5050505050908060020154908060030160009054906101000a900460ff16908060040154905085565b600160003373ffffffffffffffffffffffffffffffffffffffff1673ffffffffffffffffffffffffffffffffffffffff16815260200190815260200160002060009054906101000a900460ff16620004ec576040517f08c379a0000000000000000000000000000000000000000000000000000000008152600401620004e39062002573565b60405180910390fd5b600360003373ffffffffffffffffffffffffffffffffffffffff1673ffffffffffffffffffffffffffffffffffffffff16815260200190815260200160002060040160009054906101000a900460ff166200057e576040517f08c379a000000000000000000000000000000000000000000000000000000000815260040162000575906200260b565b60405180910390fd5b600073ffffffffffffffffffffffffffffffffffffffff168473ffffffffffffffffffffffffffffffffffffffff1603620005f0576040517f08c379a0000000000000000000000000000000000000000000000000000000008152600401620005e7906200267d565b60405180910390fd5b600083510362000637576040517f08c379a00000000000000000000000000000000000000000000000000000000081526004016200062e9062002715565b60405180910390fd5b600081116200067d576040517f08c379a00000000000000000000000000000000000000000000000000000000081526004016200067490620027ad565b60405180910390fd5b6000600460003373ffffffffffffffffffffffffffffffffffffffff1673ffffffffffffffffffffffffffffffffffffffff16815260200190815260200160002060009054906101000a900473ffffffffffffffffffffffffffffffffffffffff1690506000819050600073ffffffffffffffffffffffffffffffffffffffff168273ffffffffffffffffffffffffffffffffffffffff160362000758576040517f08c379a00000000000000000000000000000000000000000000000000000000081526004016200074f9062002845565b60405180910390fd5b838173ffffffffffffffffffffffffffffffffffffffff166370a08231846040518263ffffffff1660e01b815260040162000794919062001f39565b602060405180830381865afa158015620007b2573d6000803e3d6000fd5b505050506040513d601f19601f82011682018060405250810190620007d891906200287e565b10156200081c576040517f08c379a0000000000000000000000000000000000000000000000000000000008152600401620008139062002900565b60405180910390fd5b60008390506000814262000831919062002951565b90506040518060a001604052803373ffffffffffffffffffffffffffffffffffffffff16815260200188815260200182815260200160001515815260200187815250600560008a73ffffffffffffffffffffffffffffffffffffffff1673ffffffffffffffffffffffffffffffffffffffff16815260200190815260200160002060008201518160000160006101000a81548173ffffffffffffffffffffffffffffffffffffffff021916908373ffffffffffffffffffffffffffffffffffffffff160217905550602082015181600101908162000910919062002b5e565b506040820151816002015560608201518160030160006101000a81548160ff021916908315150217905550608082015181600401559050508273ffffffffffffffffffffffffffffffffffffffff16639dc29fac85886040518363ffffffff1660e01b81526004016200098592919062002c45565b600060405180830381600087803b158015620009a057600080fd5b505af1158015620009b5573d6000803e3d6000fd5b505050508273ffffffffffffffffffffffffffffffffffffffff1663047fc9aa6040518163ffffffff1660e01b8152600401602060405180830381865afa15801562000a05573d6000803e3d6000fd5b505050506040513d601f19601f8201168201806040525081019062000a2b91906200287e565b600260008673ffffffffffffffffffffffffffffffffffffffff1673ffffffffffffffffffffffffffffffffffffffff168152602001908152602001600020819055505050505050505050565b600360205280600052604060002060009150905080600001805462000a9d90620024c8565b80601f016020809104026020016040519081016040528092919081815260200182805462000acb90620024c8565b801562000b1c5780601f1062000af05761010080835404028352916020019162000b1c565b820191906000526020600020905b81548152906001019060200180831162000afe57829003601f168201915b5050505050908060010160009054906101000a900473ffffffffffffffffffffffffffffffffffffffff169080600201805462000b5990620024c8565b80601f016020809104026020016040519081016040528092919081815260200182805462000b8790620024c8565b801562000bd85780601f1062000bac5761010080835404028352916020019162000bd8565b820191906000526020600020905b81548152906001019060200180831162000bba57829003601f168201915b5050505050908060030154908060040160009054906101000a900460ff16905085565b600560003373ffffffffffffffffffffffffffffffffffffffff1673ffffffffffffffffffffffffffffffffffffffff16815260200190815260200160002060030160009054906101000a900460ff1662000c8d576040517f08c379a000000000000000000000000000000000000000000000000000000000815260040162000c849062002ce8565b60405180910390fd5b600073ffffffffffffffffffffffffffffffffffffffff163373ffffffffffffffffffffffffffffffffffffffff160362000cff576040517f08c379a000000000000000000000000000000000000000000000000000000000815260040162000cf69062002d80565b60405180910390fd5b6000600560003373ffffffffffffffffffffffffffffffffffffffff1673ffffffffffffffffffffffffffffffffffffffff168152602001908152602001600020600401541162000d87576040517f08c379a000000000000000000000000000000000000000000000000000000000815260040162000d7e9062002df2565b60405180910390fd5b42600560003373ffffffffffffffffffffffffffffffffffffffff1673ffffffffffffffffffffffffffffffffffffffff16815260200190815260200160002060020154111562000e0f576040517f08c379a000000000000000000000000000000000000000000000000000000000815260040162000e069062002e8a565b60405180910390fd5b6000600560003373ffffffffffffffffffffffffffffffffffffffff1673ffffffffffffffffffffffffffffffffffffffff1681526020019081526020016000206004015490506000600560003373ffffffffffffffffffffffffffffffffffffffff1673ffffffffffffffffffffffffffffffffffffffff16815260200190815260200160002060040181905550600060046000600560003373ffffffffffffffffffffffffffffffffffffffff1673ffffffffffffffffffffffffffffffffffffffff16815260200190815260200160002060000160009054906101000a900473ffffffffffffffffffffffffffffffffffffffff1673ffffffffffffffffffffffffffffffffffffffff1673ffffffffffffffffffffffffffffffffffffffff16815260200190815260200160002060009054906101000a900473ffffffffffffffffffffffffffffffffffffffff16905060008190508073ffffffffffffffffffffffffffffffffffffffff1663c32cefa133856040518363ffffffff1660e01b815260040162000fa692919062002c45565b600060405180830381600087803b15801562000fc157600080fd5b505af115801562000fd6573d6000803e3d6000fd5b50505050505050565b6000818154811062000ff057600080fd5b906000526020600020016000915054906101000a900473ffffffffffffffffffffffffffffffffffffffff1681565b60046020528060005260406000206000915054906101000a900473ffffffffffffffffffffffffffffffffffffffff1681565b600073ffffffffffffffffffffffffffffffffffffffff163373ffffffffffffffffffffffffffffffffffffffff1603620010c4576040517f08c379a0000000000000000000000000000000000000000000000000000000008152600401620010bb9062002efc565b60405180910390fd5b60018060003373ffffffffffffffffffffffffffffffffffffffff1673ffffffffffffffffffffffffffffffffffffffff16815260200190815260200160002060006101000a81548160ff0219169083151502179055506000339080600181540180825580915050600190039060005260206000200160009091909190916101000a81548173ffffffffffffffffffffffffffffffffffffffff021916908373ffffffffffffffffffffffffffffffffffffffff160217905550565b6000600160003373ffffffffffffffffffffffffffffffffffffffff1673ffffffffffffffffffffffffffffffffffffffff16815260200190815260200160002060009054906101000a900460ff1662001211576040517f08c379a0000000000000000000000000000000000000000000000000000000008152600401620012089062002573565b60405180910390fd5b600360003373ffffffffffffffffffffffffffffffffffffffff1673ffffffffffffffffffffffffffffffffffffffff16815260200190815260200160002060040160009054906101000a900460ff1615620012a4576040517f08c379a00000000000000000000000000000000000000000000000000000000081526004016200129b9062002f6e565b60405180910390fd5b6000845103620012eb576040517f08c379a0000000000000000000000000000000000000000000000000000000008152600401620012e29062003006565b60405180910390fd5b600083510362001332576040517f08c379a000000000000000000000000000000000000000000000000000000000815260040162001329906200309e565b60405180910390fd5b600073ffffffffffffffffffffffffffffffffffffffff16600360003373ffffffffffffffffffffffffffffffffffffffff1673ffffffffffffffffffffffffffffffffffffffff16815260200190815260200160002060010160009054906101000a900473ffffffffffffffffffffffffffffffffffffffff1673ffffffffffffffffffffffffffffffffffffffff161462001406576040517f08c379a0000000000000000000000000000000000000000000000000000000008152600401620013fd9062003136565b60405180910390fd5b6000848484604051620014199062001dbf565b620014279392919062003158565b604051809103906000f08015801562001444573d6000803e3d6000fd5b5090506000819050600081905060008173ffffffffffffffffffffffffffffffffffffffff1663047fc9aa6040518163ffffffff1660e01b8152600401602060405180830381865afa1580156200149f573d6000803e3d6000fd5b505050506040513d601f19601f82011682018060405250810190620014c591906200287e565b905080600260008573ffffffffffffffffffffffffffffffffffffffff1673ffffffffffffffffffffffffffffffffffffffff1681526020019081526020016000208190555082600460003373ffffffffffffffffffffffffffffffffffffffff1673ffffffffffffffffffffffffffffffffffffffff16815260200190815260200160002060006101000a81548173ffffffffffffffffffffffffffffffffffffffff021916908373ffffffffffffffffffffffffffffffffffffffff1602179055506040518060a001604052808981526020013373ffffffffffffffffffffffffffffffffffffffff16815260200188815260200182815260200160011515815250600360003373ffffffffffffffffffffffffffffffffffffffff1673ffffffffffffffffffffffffffffffffffffffff16815260200190815260200160002060008201518160000190816200161f919062002b5e565b5060208201518160010160006101000a81548173ffffffffffffffffffffffffffffffffffffffff021916908373ffffffffffffffffffffffffffffffffffffffff16021790555060408201518160020190816200167e919062002b5e565b506060820151816003015560808201518160040160006101000a81548160ff02191690831515021790555090505060019450505050509392505050565b600160003373ffffffffffffffffffffffffffffffffffffffff1673ffffffffffffffffffffffffffffffffffffffff16815260200190815260200160002060009054906101000a900460ff166200174a576040517f08c379a0000000000000000000000000000000000000000000000000000000008152600401620017419062002573565b60405180910390fd5b600073ffffffffffffffffffffffffffffffffffffffff168173ffffffffffffffffffffffffffffffffffffffff1603620017bc576040517f08c379a0000000000000000000000000000000000000000000000000000000008152600401620017b3906200267d565b60405180910390fd5b600560008273ffffffffffffffffffffffffffffffffffffffff1673ffffffffffffffffffffffffffffffffffffffff16815260200190815260200160002060030160009054906101000a900460ff16156200184f576040517f08c379a0000000000000000000000000000000000000000000000000000000008152600401620018469062003219565b60405180910390fd5b6001600560008373ffffffffffffffffffffffffffffffffffffffff1673ffffffffffffffffffffffffffffffffffffffff16815260200190815260200160002060030160006101000a81548160ff021916908315150217905550600660003373ffffffffffffffffffffffffffffffffffffffff1673ffffffffffffffffffffffffffffffffffffffff168152602001908152602001600020819080600181540180825580915050600190039060005260206000200160009091909190916101000a81548173ffffffffffffffffffffffffffffffffffffffff021916908373ffffffffffffffffffffffffffffffffffffffff16021790555050565b60606000805480602002602001604051908101604052809291908181526020018280548015620019d357602002820191906000526020600020905b8160009054906101000a900473ffffffffffffffffffffffffffffffffffffffff1673ffffffffffffffffffffffffffffffffffffffff168152602001906001019080831162001988575b5050505050905090565b600160003373ffffffffffffffffffffffffffffffffffffffff1673ffffffffffffffffffffffffffffffffffffffff16815260200190815260200160002060009054906101000a900460ff1662001a6c576040517f08c379a000000000000000000000000000000000000000000000000000000000815260040162001a639062002573565b60405180910390fd5b600073ffffffffffffffffffffffffffffffffffffffff168173ffffffffffffffffffffffffffffffffffffffff160362001ade576040517f08c379a000000000000000000000000000000000000000000000000000000000815260040162001ad5906200328b565b60405180910390fd5b6000600560008373ffffffffffffffffffffffffffffffffffffffff1673ffffffffffffffffffffffffffffffffffffffff168152602001908152602001600020600401541162001b66576040517f08c379a000000000000000000000000000000000000000000000000000000000815260040162001b5d9062002df2565b60405180910390fd5b42600560008373ffffffffffffffffffffffffffffffffffffffff1673ffffffffffffffffffffffffffffffffffffffff16815260200190815260200160002060020154111562001bee576040517f08c379a000000000000000000000000000000000000000000000000000000000815260040162001be59062002e8a565b60405180910390fd5b6000600560008373ffffffffffffffffffffffffffffffffffffffff1673ffffffffffffffffffffffffffffffffffffffff1681526020019081526020016000206004015490506000600560008473ffffffffffffffffffffffffffffffffffffffff1673ffffffffffffffffffffffffffffffffffffffff16815260200190815260200160002060040181905550600060046000600560008673ffffffffffffffffffffffffffffffffffffffff1673ffffffffffffffffffffffffffffffffffffffff16815260200190815260200160002060000160009054906101000a900473ffffffffffffffffffffffffffffffffffffffff1673ffffffffffffffffffffffffffffffffffffffff1673ffffffffffffffffffffffffffffffffffffffff16815260200190815260200160002060009054906101000a900473ffffffffffffffffffffffffffffffffffffffff16905060008190508073ffffffffffffffffffffffffffffffffffffffff1663c32cefa185856040518363ffffffff1660e01b815260040162001d8592919062002c45565b600060405180830381600087803b15801562001da057600080fd5b505af115801562001db5573d6000803e3d6000fd5b5050505050505050565b61232980620032ae83390190565b6000604051905090565b600080fd5b600080fd5b600073ffffffffffffffffffffffffffffffffffffffff82169050919050565b600062001e0e8262001de1565b9050919050565b62001e208162001e01565b811462001e2c57600080fd5b50565b60008135905062001e408162001e15565b92915050565b60006020828403121562001e5f5762001e5e62001dd7565b5b600062001e6f8482850162001e2f565b91505092915050565b6000819050919050565b62001e8d8162001e78565b82525050565b600060208201905062001eaa600083018462001e82565b92915050565b62001ebb8162001e78565b811462001ec757600080fd5b50565b60008135905062001edb8162001eb0565b92915050565b6000806040838503121562001efb5762001efa62001dd7565b5b600062001f0b8582860162001e2f565b925050602062001f1e8582860162001eca565b9150509250929050565b62001f338162001e01565b82525050565b600060208201905062001f50600083018462001f28565b92915050565b600081519050919050565b600082825260208201905092915050565b60005b8381101562001f9257808201518184015260208101905062001f75565b60008484015250505050565b6000601f19601f8301169050919050565b600062001fbc8262001f56565b62001fc8818562001f61565b935062001fda81856020860162001f72565b62001fe58162001f9e565b840191505092915050565b60008115159050919050565b620020078162001ff0565b82525050565b600060a08201905062002024600083018862001f28565b818103602083015262002038818762001faf565b905062002049604083018662001e82565b62002058606083018562001ffc565b62002067608083018462001e82565b9695505050505050565b600080fd5b600080fd5b7f4e487b7100000000000000000000000000000000000000000000000000000000600052604160045260246000fd5b620020b58262001f9e565b810181811067ffffffffffffffff82111715620020d757620020d66200207b565b5b80604052505050565b6000620020ec62001dcd565b9050620020fa8282620020aa565b919050565b600067ffffffffffffffff8211156200211d576200211c6200207b565b5b620021288262001f9e565b9050602081019050919050565b82818337600083830152505050565b60006200215b6200215584620020ff565b620020e0565b9050828152602081018484840111156200217a576200217962002076565b5b6200218784828562002135565b509392505050565b600082601f830112620021a757620021a662002071565b5b8135620021b984826020860162002144565b91505092915050565b60008060008060808587031215620021df57620021de62001dd7565b5b6000620021ef8782880162001e2f565b945050602085013567ffffffffffffffff81111562002213576200221262001ddc565b5b62002221878288016200218f565b9350506040620022348782880162001eca565b9250506060620022478782880162001eca565b91505092959194509250565b600060a08201905081810360008301526200226f818862001faf565b905062002280602083018762001f28565b818103604083015262002294818662001faf565b9050620022a5606083018562001e82565b620022b4608083018462001ffc565b9695505050505050565b600060208284031215620022d757620022d662001dd7565b5b6000620022e78482850162001eca565b91505092915050565b6000806000606084860312156200230c576200230b62001dd7565b5b600084013567ffffffffffffffff8111156200232d576200232c62001ddc565b5b6200233b868287016200218f565b935050602084013567ffffffffffffffff8111156200235f576200235e62001ddc565b5b6200236d868287016200218f565b9250506040620023808682870162001eca565b9150509250925092565b6000602082019050620023a1600083018462001ffc565b92915050565b600081519050919050565b600082825260208201905092915050565b6000819050602082019050919050565b620023de8162001e01565b82525050565b6000620023f28383620023d3565b60208301905092915050565b6000602082019050919050565b60006200241882620023a7565b620024248185620023b2565b93506200243183620023c3565b8060005b83811015620024685781516200244c8882620023e4565b97506200245983620023fe565b92505060018101905062002435565b5085935050505092915050565b600060208201905081810360008301526200249181846200240b565b905092915050565b7f4e487b7100000000000000000000000000000000000000000000000000000000600052602260045260246000fd5b60006002820490506001821680620024e157607f821691505b602082108103620024f757620024f662002499565b5b50919050565b7f4f6e6c7920612072656769737465726564206f7267616e697a6174696f6e206360008201527f616e20706572666f726d207468697320616374696f6e2e000000000000000000602082015250565b60006200255b60378362001f61565b91506200256882620024fd565b604082019050919050565b600060208201905081810360008301526200258e816200254c565b9050919050565b7f4f6e6c7920612072656769737465726564206f7267616e697a6174696f6e206360008201527f616e207365742076657374696e672064657461696c732e000000000000000000602082015250565b6000620025f360378362001f61565b9150620026008262002595565b604082019050919050565b600060208201905081810360008301526200262681620025e4565b9050919050565b7f496e76616c6964207374616b65686f6c64657220616464726573732e00000000600082015250565b600062002665601c8362001f61565b915062002672826200262d565b602082019050919050565b60006020820190508181036000830152620026988162002656565b9050919050565b7f50726f7669646520612076616c6964207374616b65686f6c646572207479706560008201527f2e00000000000000000000000000000000000000000000000000000000000000602082015250565b6000620026fd60218362001f61565b91506200270a826200269f565b604082019050919050565b600060208201905081810360008301526200273081620026ee565b9050919050565b7f56657374696e6720706572696f64206d7573742062652067726561746572207460008201527f68616e207a65726f2e0000000000000000000000000000000000000000000000602082015250565b60006200279560298362001f61565b9150620027a28262002737565b604082019050919050565b60006020820190508181036000830152620027c88162002786565b9050919050565b7f546f6b656e206e6f7420666f756e6420666f7220746865206f7267616e69736160008201527f74696f6e2e000000000000000000000000000000000000000000000000000000602082015250565b60006200282d60258362001f61565b91506200283a82620027cf565b604082019050919050565b6000602082019050818103600083015262002860816200281e565b9050919050565b600081519050620028788162001eb0565b92915050565b60006020828403121562002897576200289662001dd7565b5b6000620028a78482850162002867565b91505092915050565b7f4f7267616e69736174696f6e206973206f7574206f6620746f6b656e732e0000600082015250565b6000620028e8601e8362001f61565b9150620028f582620028b0565b602082019050919050565b600060208201905081810360008301526200291b81620028d9565b9050919050565b7f4e487b7100000000000000000000000000000000000000000000000000000000600052601160045260246000fd5b60006200295e8262001e78565b91506200296b8362001e78565b925082820190508082111562002986576200298562002922565b5b92915050565b60008190508160005260206000209050919050565b60006020601f8301049050919050565b600082821b905092915050565b600060088302620029f07fffffffffffffffffffffffffffffffffffffffffffffffffffffffffffffffff82620029b1565b620029fc8683620029b1565b95508019841693508086168417925050509392505050565b6000819050919050565b600062002a3f62002a3962002a338462001e78565b62002a14565b62001e78565b9050919050565b6000819050919050565b62002a5b8362002a1e565b62002a7362002a6a8262002a46565b848454620029be565b825550505050565b600090565b62002a8a62002a7b565b62002a9781848462002a50565b505050565b5b8181101562002abf5762002ab360008262002a80565b60018101905062002a9d565b5050565b601f82111562002b0e5762002ad8816200298c565b62002ae384620029a1565b8101602085101562002af3578190505b62002b0b62002b0285620029a1565b83018262002a9c565b50505b505050565b600082821c905092915050565b600062002b336000198460080262002b13565b1980831691505092915050565b600062002b4e838362002b20565b9150826002028217905092915050565b62002b698262001f56565b67ffffffffffffffff81111562002b855762002b846200207b565b5b62002b918254620024c8565b62002b9e82828562002ac3565b600060209050601f83116001811462002bd6576000841562002bc1578287015190505b62002bcd858262002b40565b86555062002c3d565b601f19841662002be6866200298c565b60005b8281101562002c105784890151825560018201915060208501945060208101905062002be9565b8683101562002c30578489015162002c2c601f89168262002b20565b8355505b6001600288020188555050505b505050505050565b600060408201905062002c5c600083018562001f28565b62002c6b602083018462001e82565b9392505050565b7f4f6e6c792077686974656c6973746564207374616b65686f6c6465727320636160008201527f6e20706572666f726d207468697320616374696f6e2e00000000000000000000602082015250565b600062002cd060368362001f61565b915062002cdd8262002c72565b604082019050919050565b6000602082019050818103600083015262002d038162002cc1565b9050919050565b7f5468652061646472657373206973206e6f7420612076616c696420616464726560008201527f73732e0000000000000000000000000000000000000000000000000000000000602082015250565b600062002d6860238362001f61565b915062002d758262002d0a565b604082019050919050565b6000602082019050818103600083015262002d9b8162002d59565b9050919050565b7f4e6f20746f6b656e7320617661696c61626c6520746f20636c61696d2e000000600082015250565b600062002dda601d8362001f61565b915062002de78262002da2565b602082019050919050565b6000602082019050818103600083015262002e0d8162002dcb565b9050919050565b7f56657374696e6720706572696f64206e6f742079657420636f6d706c6574656460008201527f2e00000000000000000000000000000000000000000000000000000000000000602082015250565b600062002e7260218362001f61565b915062002e7f8262002e14565b604082019050919050565b6000602082019050818103600083015262002ea58162002e63565b9050919050565b7f496e76616c696420616464726573730000000000000000000000000000000000600082015250565b600062002ee4600f8362001f61565b915062002ef18262002eac565b602082019050919050565b6000602082019050818103600083015262002f178162002ed5565b9050919050565b7f4f7267616e69736174696f6e20616c7265616479207265676973746572656400600082015250565b600062002f56601f8362001f61565b915062002f638262002f1e565b602082019050919050565b6000602082019050818103600083015262002f898162002f47565b9050919050565b7f50726f7669646520612076616c6964206f7267616e69736174696f6e206e616d60008201527f6500000000000000000000000000000000000000000000000000000000000000602082015250565b600062002fee60218362001f61565b915062002ffb8262002f90565b604082019050919050565b60006020820190508181036000830152620030218162002fdf565b9050919050565b7f50726f76696465206120746f6b656e206e616d652c20692e652e2c20616e206160008201527f6262726576696174696f6e000000000000000000000000000000000000000000602082015250565b600062003086602b8362001f61565b9150620030938262003028565b604082019050919050565b60006020820190508181036000830152620030b98162003077565b9050919050565b7f416e206f7267616e69736174696f6e2068617320616c726561647920676f6e6560008201527f2062792074686174206164647265737300000000000000000000000000000000602082015250565b60006200311e60308362001f61565b91506200312b82620030c0565b604082019050919050565b6000602082019050818103600083015262003151816200310f565b9050919050565b6000606082019050818103600083015262003174818662001faf565b905081810360208301526200318a818562001faf565b90506200319b604083018462001e82565b949350505050565b7f5374616b65686f6c6465722068617320616c7265616479206265656e2077686960008201527f74656c69737465642e0000000000000000000000000000000000000000000000602082015250565b60006200320160298362001f61565b91506200320e82620031a3565b604082019050919050565b600060208201905081810360008301526200323481620031f2565b9050919050565b7f50726f7669646520612076616c69642061646472657373000000000000000000600082015250565b60006200327360178362001f61565b915062003280826200323b565b602082019050919050565b60006020820190508181036000830152620032a68162003264565b905091905056fe60806040523480156200001157600080fd5b5060405162002329380380620023298339818101604052810190620000379190620003c6565b828281600390816200004a9190620006a1565b5080600490816200005c9190620006a1565b5050506200007130826200008160201b60201c565b80600581905550505050620008a3565b600073ffffffffffffffffffffffffffffffffffffffff168273ffffffffffffffffffffffffffffffffffffffff1603620000f3576040517f08c379a0000000000000000000000000000000000000000000000000000000008152600401620000ea90620007e9565b60405180910390fd5b6200010760008383620001ee60201b60201c565b80600260008282546200011b91906200083a565b92505081905550806000808473ffffffffffffffffffffffffffffffffffffffff1673ffffffffffffffffffffffffffffffffffffffff168152602001908152602001600020600082825401925050819055508173ffffffffffffffffffffffffffffffffffffffff16600073ffffffffffffffffffffffffffffffffffffffff167fddf252ad1be2c89b69c2b068fc378daa952ba7f163c4a11628f55a4df523b3ef83604051620001ce919062000886565b60405180910390a3620001ea60008383620001f360201b60201c565b5050565b505050565b505050565b6000604051905090565b600080fd5b600080fd5b600080fd5b600080fd5b6000601f19601f8301169050919050565b7f4e487b7100000000000000000000000000000000000000000000000000000000600052604160045260246000fd5b620002618262000216565b810181811067ffffffffffffffff8211171562000283576200028262000227565b5b80604052505050565b600062000298620001f8565b9050620002a6828262000256565b919050565b600067ffffffffffffffff821115620002c957620002c862000227565b5b620002d48262000216565b9050602081019050919050565b60005b8381101562000301578082015181840152602081019050620002e4565b60008484015250505050565b6000620003246200031e84620002ab565b6200028c565b90508281526020810184848401111562000343576200034262000211565b5b62000350848285620002e1565b509392505050565b600082601f83011262000370576200036f6200020c565b5b8151620003828482602086016200030d565b91505092915050565b6000819050919050565b620003a0816200038b565b8114620003ac57600080fd5b50565b600081519050620003c08162000395565b92915050565b600080600060608486031215620003e257620003e162000202565b5b600084015167ffffffffffffffff81111562000403576200040262000207565b5b620004118682870162000358565b935050602084015167ffffffffffffffff81111562000435576200043462000207565b5b620004438682870162000358565b92505060406200045686828701620003af565b9150509250925092565b600081519050919050565b7f4e487b7100000000000000000000000000000000000000000000000000000000600052602260045260246000fd5b60006002820490506001821680620004b357607f821691505b602082108103620004c957620004c86200046b565b5b50919050565b60008190508160005260206000209050919050565b60006020601f8301049050919050565b600082821b905092915050565b600060088302620005337fffffffffffffffffffffffffffffffffffffffffffffffffffffffffffffffff82620004f4565b6200053f8683620004f4565b95508019841693508086168417925050509392505050565b6000819050919050565b6000620005826200057c62000576846200038b565b62000557565b6200038b565b9050919050565b6000819050919050565b6200059e8362000561565b620005b6620005ad8262000589565b84845462000501565b825550505050565b600090565b620005cd620005be565b620005da81848462000593565b505050565b5b818110156200060257620005f6600082620005c3565b600181019050620005e0565b5050565b601f82111562000651576200061b81620004cf565b6200062684620004e4565b8101602085101562000636578190505b6200064e6200064585620004e4565b830182620005df565b50505b505050565b600082821c905092915050565b6000620006766000198460080262000656565b1980831691505092915050565b600062000691838362000663565b9150826002028217905092915050565b620006ac8262000460565b67ffffffffffffffff811115620006c857620006c762000227565b5b620006d482546200049a565b620006e182828562000606565b600060209050601f83116001811462000719576000841562000704578287015190505b62000710858262000683565b86555062000780565b601f1984166200072986620004cf565b60005b8281101562000753578489015182556001820191506020850194506020810190506200072c565b868310156200077357848901516200076f601f89168262000663565b8355505b6001600288020188555050505b505050505050565b600082825260208201905092915050565b7f45524332303a206d696e7420746f20746865207a65726f206164647265737300600082015250565b6000620007d1601f8362000788565b9150620007de8262000799565b602082019050919050565b600060208201905081810360008301526200080481620007c2565b9050919050565b7f4e487b7100000000000000000000000000000000000000000000000000000000600052601160045260246000fd5b600062000847826200038b565b915062000854836200038b565b92508282019050808211156200086f576200086e6200080b565b5b92915050565b62000880816200038b565b82525050565b60006020820190506200089d600083018462000875565b92915050565b611a7680620008b36000396000f3fe608060405234801561001057600080fd5b50600436106101215760003560e01c806370a08231116100ad578063a457c2d711610071578063a457c2d71461031e578063a9059cbb1461034e578063c32cefa11461037e578063dd62ed3e1461039a578063e3d670d7146103ca57610121565b806370a082311461027a57806379cc6790146102aa57806395d89b41146102c65780639dc29fac146102e4578063a44b47f71461030057610121565b806323b872dd116100f457806323b872dd146101b057806327e235e3146101e0578063313ce56714610210578063395093511461022e57806342966c681461025e57610121565b8063047fc9aa1461012657806306fdde0314610144578063095ea7b31461016257806318160ddd14610192575b600080fd5b61012e6103fa565b60405161013b919061107f565b60405180910390f35b61014c610404565b604051610159919061112a565b60405180910390f35b61017c600480360381019061017791906111db565b610496565b6040516101899190611236565b60405180910390f35b61019a6104b9565b6040516101a7919061107f565b60405180910390f35b6101ca60048036038101906101c59190611251565b6104c3565b6040516101d79190611236565b60405180910390f35b6101fa60048036038101906101f591906112a4565b6104f2565b604051610207919061107f565b60405180910390f35b61021861050a565b60405161022591906112ed565b60405180910390f35b610248600480360381019061024391906111db565b610513565b6040516102559190611236565b60405180910390f35b61027860048036038101906102739190611308565b61054a565b005b610294600480360381019061028f91906112a4565b61055e565b6040516102a1919061107f565b60405180910390f35b6102c460048036038101906102bf91906111db565b6105a6565b005b6102ce6105c6565b6040516102db919061112a565b60405180910390f35b6102fe60048036038101906102f991906111db565b610658565b005b61030861076f565b604051610315919061107f565b60405180910390f35b610338600480360381019061033391906111db565b610775565b6040516103459190611236565b60405180910390f35b610368600480360381019061036391906111db565b6107ec565b6040516103759190611236565b60405180910390f35b610398600480360381019061039391906111db565b61080f565b005b6103b460048036038101906103af9190611335565b61091d565b6040516103c1919061107f565b60405180910390f35b6103e460048036038101906103df91906112a4565b6109a4565b6040516103f1919061107f565b60405180910390f35b6000600554905090565b606060038054610413906113a4565b80601f016020809104026020016040519081016040528092919081815260200182805461043f906113a4565b801561048c5780601f106104615761010080835404028352916020019161048c565b820191906000526020600020905b81548152906001019060200180831161046f57829003601f168201915b5050505050905090565b6000806104a16109bc565b90506104ae8185856109c4565b600191505092915050565b6000600254905090565b6000806104ce6109bc565b90506104db858285610b8d565b6104e6858585610c19565b60019150509392505050565b60076020528060005260406000206000915090505481565b60006012905090565b60008061051e6109bc565b905061053f818585610530858961091d565b61053a9190611404565b6109c4565b600191505092915050565b61055b6105556109bc565b82610e8f565b50565b60008060008373ffffffffffffffffffffffffffffffffffffffff1673ffffffffffffffffffffffffffffffffffffffff168152602001908152602001600020549050919050565b6105b8826105b26109bc565b83610b8d565b6105c28282610e8f565b5050565b6060600480546105d5906113a4565b80601f0160208091040260200160405190810160405280929190818152602001828054610601906113a4565b801561064e5780601f106106235761010080835404028352916020019161064e565b820191906000526020600020905b81548152906001019060200180831161063157829003601f168201915b5050505050905090565b600073ffffffffffffffffffffffffffffffffffffffff168273ffffffffffffffffffffffffffffffffffffffff16036106c7576040517f08c379a00000000000000000000000000000000000000000000000000000000081526004016106be90611484565b60405180910390fd5b60055481111561070c576040517f08c379a0000000000000000000000000000000000000000000000000000000008152600401610703906114f0565b60405180910390fd5b806005600082825461071e9190611510565b92505081905550600554600660008473ffffffffffffffffffffffffffffffffffffffff1673ffffffffffffffffffffffffffffffffffffffff168152602001908152602001600020819055505050565b60055481565b6000806107806109bc565b9050600061078e828661091d565b9050838110156107d3576040517f08c379a00000000000000000000000000000000000000000000000000000000081526004016107ca906115b6565b60405180910390fd5b6107e082868684036109c4565b60019250505092915050565b6000806107f76109bc565b9050610804818585610c19565b600191505092915050565b600073ffffffffffffffffffffffffffffffffffffffff168273ffffffffffffffffffffffffffffffffffffffff160361087e576040517f08c379a000000000000000000000000000000000000000000000000000000000815260040161087590611484565b60405180910390fd5b6005548111156108c3576040517f08c379a00000000000000000000000000000000000000000000000000000000081526004016108ba906114f0565b60405180910390fd5b80600760008473ffffffffffffffffffffffffffffffffffffffff1673ffffffffffffffffffffffffffffffffffffffff16815260200190815260200160002060008282546109129190611404565b925050819055505050565b6000600160008473ffffffffffffffffffffffffffffffffffffffff1673ffffffffffffffffffffffffffffffffffffffff16815260200190815260200160002060008373ffffffffffffffffffffffffffffffffffffffff1673ffffffffffffffffffffffffffffffffffffffff16815260200190815260200160002054905092915050565b60066020528060005260406000206000915090505481565b600033905090565b600073ffffffffffffffffffffffffffffffffffffffff168373ffffffffffffffffffffffffffffffffffffffff1603610a33576040517f08c379a0000000000000000000000000000000000000000000000000000000008152600401610a2a90611648565b60405180910390fd5b600073ffffffffffffffffffffffffffffffffffffffff168273ffffffffffffffffffffffffffffffffffffffff1603610aa2576040517f08c379a0000000000000000000000000000000000000000000000000000000008152600401610a99906116da565b60405180910390fd5b80600160008573ffffffffffffffffffffffffffffffffffffffff1673ffffffffffffffffffffffffffffffffffffffff16815260200190815260200160002060008473ffffffffffffffffffffffffffffffffffffffff1673ffffffffffffffffffffffffffffffffffffffff168152602001908152602001600020819055508173ffffffffffffffffffffffffffffffffffffffff168373ffffffffffffffffffffffffffffffffffffffff167f8c5be1e5ebec7d5bd14f71427d1e84f3dd0314c0f7b2291e5b200ac8c7c3b92583604051610b80919061107f565b60405180910390a3505050565b6000610b99848461091d565b90507fffffffffffffffffffffffffffffffffffffffffffffffffffffffffffffffff8114610c135781811015610c05576040517f08c379a0000000000000000000000000000000000000000000000000000000008152600401610bfc90611746565b60405180910390fd5b610c1284848484036109c4565b5b50505050565b600073ffffffffffffffffffffffffffffffffffffffff168373ffffffffffffffffffffffffffffffffffffffff1603610c88576040517f08c379a0000000000000000000000000000000000000000000000000000000008152600401610c7f906117d8565b60405180910390fd5b600073ffffffffffffffffffffffffffffffffffffffff168273ffffffffffffffffffffffffffffffffffffffff1603610cf7576040517f08c379a0000000000000000000000000000000000000000000000000000000008152600401610cee9061186a565b60405180910390fd5b610d0283838361105c565b60008060008573ffffffffffffffffffffffffffffffffffffffff1673ffffffffffffffffffffffffffffffffffffffff16815260200190815260200160002054905081811015610d88576040517f08c379a0000000000000000000000000000000000000000000000000000000008152600401610d7f906118fc565b60405180910390fd5b8181036000808673ffffffffffffffffffffffffffffffffffffffff1673ffffffffffffffffffffffffffffffffffffffff16815260200190815260200160002081905550816000808573ffffffffffffffffffffffffffffffffffffffff1673ffffffffffffffffffffffffffffffffffffffff168152602001908152602001600020600082825401925050819055508273ffffffffffffffffffffffffffffffffffffffff168473ffffffffffffffffffffffffffffffffffffffff167fddf252ad1be2c89b69c2b068fc378daa952ba7f163c4a11628f55a4df523b3ef84604051610e76919061107f565b60405180910390a3610e89848484611061565b50505050565b600073ffffffffffffffffffffffffffffffffffffffff168273ffffffffffffffffffffffffffffffffffffffff1603610efe576040517f08c379a0000000000000000000000000000000000000000000000000000000008152600401610ef59061198e565b60405180910390fd5b610f0a8260008361105c565b60008060008473ffffffffffffffffffffffffffffffffffffffff1673ffffffffffffffffffffffffffffffffffffffff16815260200190815260200160002054905081811015610f90576040517f08c379a0000000000000000000000000000000000000000000000000000000008152600401610f8790611a20565b60405180910390fd5b8181036000808573ffffffffffffffffffffffffffffffffffffffff1673ffffffffffffffffffffffffffffffffffffffff1681526020019081526020016000208190555081600260008282540392505081905550600073ffffffffffffffffffffffffffffffffffffffff168373ffffffffffffffffffffffffffffffffffffffff167fddf252ad1be2c89b69c2b068fc378daa952ba7f163c4a11628f55a4df523b3ef84604051611043919061107f565b60405180910390a361105783600084611061565b505050565b505050565b505050565b6000819050919050565b61107981611066565b82525050565b60006020820190506110946000830184611070565b92915050565b600081519050919050565b600082825260208201905092915050565b60005b838110156110d45780820151818401526020810190506110b9565b60008484015250505050565b6000601f19601f8301169050919050565b60006110fc8261109a565b61110681856110a5565b93506111168185602086016110b6565b61111f816110e0565b840191505092915050565b6000602082019050818103600083015261114481846110f1565b905092915050565b600080fd5b600073ffffffffffffffffffffffffffffffffffffffff82169050919050565b600061117c82611151565b9050919050565b61118c81611171565b811461119757600080fd5b50565b6000813590506111a981611183565b92915050565b6111b881611066565b81146111c357600080fd5b50565b6000813590506111d5816111af565b92915050565b600080604083850312156111f2576111f161114c565b5b60006112008582860161119a565b9250506020611211858286016111c6565b9150509250929050565b60008115159050919050565b6112308161121b565b82525050565b600060208201905061124b6000830184611227565b92915050565b60008060006060848603121561126a5761126961114c565b5b60006112788682870161119a565b93505060206112898682870161119a565b925050604061129a868287016111c6565b9150509250925092565b6000602082840312156112ba576112b961114c565b5b60006112c88482850161119a565b91505092915050565b600060ff82169050919050565b6112e7816112d1565b82525050565b600060208201905061130260008301846112de565b92915050565b60006020828403121561131e5761131d61114c565b5b600061132c848285016111c6565b91505092915050565b6000806040838503121561134c5761134b61114c565b5b600061135a8582860161119a565b925050602061136b8582860161119a565b9150509250929050565b7f4e487b7100000000000000000000000000000000000000000000000000000000600052602260045260246000fd5b600060028204905060018216806113bc57607f821691505b6020821081036113cf576113ce611375565b5b50919050565b7f4e487b7100000000000000000000000000000000000000000000000000000000600052601160045260246000fd5b600061140f82611066565b915061141a83611066565b9250828201905080821115611432576114316113d5565b5b92915050565b7f41646472657373206e6f742076616c6964000000000000000000000000000000600082015250565b600061146e6011836110a5565b915061147982611438565b602082019050919050565b6000602082019050818103600083015261149d81611461565b9050919050565b7f56616c7565206578636565647320746f74616c20737570706c79000000000000600082015250565b60006114da601a836110a5565b91506114e5826114a4565b602082019050919050565b60006020820190508181036000830152611509816114cd565b9050919050565b600061151b82611066565b915061152683611066565b925082820390508181111561153e5761153d6113d5565b5b92915050565b7f45524332303a2064656372656173656420616c6c6f77616e63652062656c6f7760008201527f207a65726f000000000000000000000000000000000000000000000000000000602082015250565b60006115a06025836110a5565b91506115ab82611544565b604082019050919050565b600060208201905081810360008301526115cf81611593565b9050919050565b7f45524332303a20617070726f76652066726f6d20746865207a65726f2061646460008201527f7265737300000000000000000000000000000000000000000000000000000000602082015250565b60006116326024836110a5565b915061163d826115d6565b604082019050919050565b6000602082019050818103600083015261166181611625565b9050919050565b7f45524332303a20617070726f766520746f20746865207a65726f20616464726560008201527f7373000000000000000000000000000000000000000000000000000000000000602082015250565b60006116c46022836110a5565b91506116cf82611668565b604082019050919050565b600060208201905081810360008301526116f3816116b7565b9050919050565b7f45524332303a20696e73756666696369656e7420616c6c6f77616e6365000000600082015250565b6000611730601d836110a5565b915061173b826116fa565b602082019050919050565b6000602082019050818103600083015261175f81611723565b9050919050565b7f45524332303a207472616e736665722066726f6d20746865207a65726f20616460008201527f6472657373000000000000000000000000000000000000000000000000000000602082015250565b60006117c26025836110a5565b91506117cd82611766565b604082019050919050565b600060208201905081810360008301526117f1816117b5565b9050919050565b7f45524332303a207472616e7366657220746f20746865207a65726f206164647260008201527f6573730000000000000000000000000000000000000000000000000000000000602082015250565b60006118546023836110a5565b915061185f826117f8565b604082019050919050565b6000602082019050818103600083015261188381611847565b9050919050565b7f45524332303a207472616e7366657220616d6f756e742065786365656473206260008201527f616c616e63650000000000000000000000000000000000000000000000000000602082015250565b60006118e66026836110a5565b91506118f18261188a565b604082019050919050565b60006020820190508181036000830152611915816118d9565b9050919050565b7f45524332303a206275726e2066726f6d20746865207a65726f2061646472657360008201527f7300000000000000000000000000000000000000000000000000000000000000602082015250565b60006119786021836110a5565b91506119838261191c565b604082019050919050565b600060208201905081810360008301526119a78161196b565b9050919050565b7f45524332303a206275726e20616d6f756e7420657863656564732062616c616e60008201527f6365000000000000000000000000000000000000000000000000000000000000602082015250565b6000611a0a6022836110a5565b9150611a15826119ae565b604082019050919050565b60006020820190508181036000830152611a39816119fd565b905091905056fea2646970667358221220ebbe3528475be7e26005544adb047a0d88550b7a3c87471a338751b3aed37bbf64736f6c63430008120033a2646970667358221220fce5e7db26404d38af891cf49763b30f6d41bfa4ec15c56338f8bf936f47a77f64736f6c63430008120033",
  "linkReferences": {},
  "deployedLinkReferences": {}
}