{
  "_format": "hh-sol-artifact-1",
  "contractName": "CoinVest",
  "sourceName": "contracts/vestcoin.sol",
  "abi": [
    {
      "inputs": [],
      "name": "claimTokens",
      "outputs": [
        {
          "internalType": "uint256",
          "name": "",
          "type": "uint256"
        }
      ],
      "stateMutability": "nonpayable",
      "type": "function"
    },
    {
      "inputs": [
        {
          "internalType": "address",
          "name": "_stakeholderAddr",
          "type": "address"
        }
      ],
      "name": "claimTokensFor",
      "outputs": [],
      "stateMutability": "nonpayable",
      "type": "function"
    },
    {
      "inputs": [],
      "name": "getOrgs",
      "outputs": [
        {
          "internalType": "address[]",
          "name": "",
          "type": "address[]"
        }
      ],
      "stateMutability": "view",
      "type": "function"
    },
    {
      "inputs": [
        {
          "internalType": "string",
          "name": "_orgName",
          "type": "string"
        },
        {
          "internalType": "string",
          "name": "_symbol",
          "type": "string"
        },
        {
          "internalType": "uint256",
          "name": "_totalSupply",
          "type": "uint256"
        }
      ],
      "name": "orgToken",
      "outputs": [
        {
          "internalType": "bool",
          "name": "",
          "type": "bool"
        }
      ],
      "stateMutability": "nonpayable",
      "type": "function"
    },
    {
      "inputs": [
        {
          "internalType": "address",
          "name": "",
          "type": "address"
        }
      ],
      "name": "orgTokenBalances",
      "outputs": [
        {
          "internalType": "uint256",
          "name": "",
          "type": "uint256"
        }
      ],
      "stateMutability": "view",
      "type": "function"
    },
    {
      "inputs": [
        {
          "internalType": "address",
          "name": "",
          "type": "address"
        }
      ],
      "name": "orgTokenDetail",
      "outputs": [
        {
          "internalType": "address",
          "name": "",
          "type": "address"
        }
      ],
      "stateMutability": "view",
      "type": "function"
    },
    {
      "inputs": [
        {
          "internalType": "address",
          "name": "",
          "type": "address"
        }
      ],
      "name": "organisations",
      "outputs": [
        {
          "internalType": "string",
          "name": "name",
          "type": "string"
        },
        {
          "internalType": "address",
          "name": "admin",
          "type": "address"
        },
        {
          "internalType": "string",
          "name": "symbol",
          "type": "string"
        },
        {
          "internalType": "uint256",
          "name": "totalSupply",
          "type": "uint256"
        },
        {
          "internalType": "bool",
          "name": "registered",
          "type": "bool"
        }
      ],
      "stateMutability": "view",
      "type": "function"
    },
    {
      "inputs": [
        {
          "internalType": "uint256",
          "name": "",
          "type": "uint256"
        }
      ],
      "name": "orgs",
      "outputs": [
        {
          "internalType": "address",
          "name": "",
          "type": "address"
        }
      ],
      "stateMutability": "view",
      "type": "function"
    },
    {
      "inputs": [],
      "name": "registerAsOrg",
      "outputs": [],
      "stateMutability": "nonpayable",
      "type": "function"
    },
    {
      "inputs": [
        {
          "internalType": "address",
          "name": "_stakeholderAddr",
          "type": "address"
        },
        {
          "internalType": "string",
          "name": "_tag",
          "type": "string"
        },
        {
          "internalType": "uint256",
          "name": "_amount",
          "type": "uint256"
        },
        {
          "internalType": "uint256",
          "name": "_vestingPeriod",
          "type": "uint256"
        }
      ],
      "name": "setVestingDetails",
      "outputs": [],
      "stateMutability": "nonpayable",
      "type": "function"
    },
    {
      "inputs": [
        {
          "internalType": "address",
          "name": "_stakeholderAddr",
          "type": "address"
        }
      ],
      "name": "setWhitelist",
      "outputs": [],
      "stateMutability": "nonpayable",
      "type": "function"
    },
    {
      "inputs": [
        {
          "internalType": "address",
          "name": "",
          "type": "address"
        }
      ],
      "name": "stakeholderDetails",
      "outputs": [
        {
          "internalType": "address",
          "name": "admin",
          "type": "address"
        },
        {
          "internalType": "string",
          "name": "tag",
          "type": "string"
        },
        {
          "internalType": "uint256",
          "name": "vestingPeriod",
          "type": "uint256"
        },
        {
          "internalType": "bool",
          "name": "isWhitelisted",
          "type": "bool"
        },
        {
          "internalType": "uint256",
          "name": "balanceOfStake",
          "type": "uint256"
        }
      ],
      "stateMutability": "view",
      "type": "function"
    },
    {
      "inputs": [
        {
          "internalType": "address",
          "name": "",
          "type": "address"
        },
        {
          "internalType": "uint256",
          "name": "",
          "type": "uint256"
        }
      ],
      "name": "whitelistedAddresses",
      "outputs": [
        {
          "internalType": "address",
          "name": "",
          "type": "address"
        }
      ],
      "stateMutability": "view",
      "type": "function"
    }
  ],
  "bytecode": "0x608060405234801561001057600080fd5b5061572a806100206000396000f3fe60806040523480156200001157600080fd5b5060043610620000e25760003560e01c80634f5c2e6c11620000995780637e38635f116200006f5780637e38635f1462000281578063854cff2f14620002b7578063ede7677514620002d7578063ee0b04be14620002f957620000e2565b80634f5c2e6c146200020957806371312b41146200023f57806379f3fb7d146200027557620000e2565b80630aeb3ff114620000e75780630bdece24146200011d57806321437185146200015357806328c7e9cb146200018d578063360d8ebf14620001ad57806348c54b9d14620001e7575b600080fd5b620001056004803603810190620000ff919062001ee0565b62000319565b60405162000114919062001f2d565b60405180910390f35b6200013b600480360381019062000135919062001f7b565b62000331565b6040516200014a919062001fd3565b60405180910390f35b6200017160048036038101906200016b919062001ee0565b62000380565b60405162000184959493929190620020a7565b60405180910390f35b620001ab6004803603810190620001a591906200225c565b62000473565b005b620001cb6004803603810190620001c5919062001ee0565b62000a8e565b604051620001de959493929190620022ed565b60405180910390f35b620001f162000c11565b60405162000200919062001f2d565b60405180910390f35b62000227600480360381019062000221919062002358565b62001079565b60405162000236919062001fd3565b60405180910390f35b6200025d600480360381019062000257919062001ee0565b620010b9565b6040516200026c919062001fd3565b60405180910390f35b6200027f620010ec565b005b6200029f60048036038101906200029991906200238a565b6200121a565b604051620002ae919062002424565b60405180910390f35b620002d56004803603810190620002cf919062001ee0565b62001755565b005b620002e1620019e7565b604051620002f091906200250f565b60405180910390f35b62000317600480360381019062000311919062001ee0565b62001a77565b005b60026020528060005260406000206000915090505481565b600660205281600052604060002081815481106200034e57600080fd5b906000526020600020016000915091509054906101000a900473ffffffffffffffffffffffffffffffffffffffff1681565b60056020528060005260406000206000915090508060000160009054906101000a900473ffffffffffffffffffffffffffffffffffffffff1690806001018054620003cb9062002562565b80601f0160208091040260200160405190810160405280929190818152602001828054620003f99062002562565b80156200044a5780601f106200041e576101008083540402835291602001916200044a565b820191906000526020600020905b8154815290600101906020018083116200042c57829003601f168201915b5050505050908060020154908060030160009054906101000a900460ff16908060040154905085565b600160003373ffffffffffffffffffffffffffffffffffffffff1673ffffffffffffffffffffffffffffffffffffffff16815260200190815260200160002060009054906101000a900460ff1662000502576040517f08c379a0000000000000000000000000000000000000000000000000000000008152600401620004f9906200260d565b60405180910390fd5b600360003373ffffffffffffffffffffffffffffffffffffffff1673ffffffffffffffffffffffffffffffffffffffff16815260200190815260200160002060040160009054906101000a900460ff1662000594576040517f08c379a00000000000000000000000000000000000000000000000000000000081526004016200058b90620026a5565b60405180910390fd5b600073ffffffffffffffffffffffffffffffffffffffff168473ffffffffffffffffffffffffffffffffffffffff160362000606576040517f08c379a0000000000000000000000000000000000000000000000000000000008152600401620005fd9062002717565b60405180910390fd5b60008351036200064d576040517f08c379a00000000000000000000000000000000000000000000000000000000081526004016200064490620027af565b60405180910390fd5b6000811162000693576040517f08c379a00000000000000000000000000000000000000000000000000000000081526004016200068a9062002847565b60405180910390fd5b6000600460003373ffffffffffffffffffffffffffffffffffffffff1673ffffffffffffffffffffffffffffffffffffffff16815260200190815260200160002060009054906101000a900473ffffffffffffffffffffffffffffffffffffffff1690506000819050600073ffffffffffffffffffffffffffffffffffffffff168273ffffffffffffffffffffffffffffffffffffffff16036200076e576040517f08c379a00000000000000000000000000000000000000000000000000000000081526004016200076590620028df565b60405180910390fd5b838173ffffffffffffffffffffffffffffffffffffffff166370a08231846040518263ffffffff1660e01b8152600401620007aa919062001fd3565b602060405180830381865afa158015620007c8573d6000803e3d6000fd5b505050506040513d601f19601f82011682018060405250810190620007ee919062002918565b101562000832576040517f08c379a000000000000000000000000000000000000000000000000000000000815260040162000829906200299a565b60405180910390fd5b600083905060008142620008479190620029eb565b90506040518060a001604052803373ffffffffffffffffffffffffffffffffffffffff16815260200188815260200182815260200160001515815260200187815250600560008a73ffffffffffffffffffffffffffffffffffffffff1673ffffffffffffffffffffffffffffffffffffffff16815260200190815260200160002060008201518160000160006101000a81548173ffffffffffffffffffffffffffffffffffffffff021916908373ffffffffffffffffffffffffffffffffffffffff160217905550602082015181600101908162000926919062002bf8565b506040820151816002015560608201518160030160006101000a81548160ff021916908315150217905550608082015181600401559050508273ffffffffffffffffffffffffffffffffffffffff16639dc29fac85886040518363ffffffff1660e01b81526004016200099b92919062002cdf565b600060405180830381600087803b158015620009b657600080fd5b505af1158015620009cb573d6000803e3d6000fd5b505050508273ffffffffffffffffffffffffffffffffffffffff1663047fc9aa6040518163ffffffff1660e01b8152600401602060405180830381865afa15801562000a1b573d6000803e3d6000fd5b505050506040513d601f19601f8201168201806040525081019062000a41919062002918565b600260008673ffffffffffffffffffffffffffffffffffffffff1673ffffffffffffffffffffffffffffffffffffffff168152602001908152602001600020819055505050505050505050565b600360205280600052604060002060009150905080600001805462000ab39062002562565b80601f016020809104026020016040519081016040528092919081815260200182805462000ae19062002562565b801562000b325780601f1062000b065761010080835404028352916020019162000b32565b820191906000526020600020905b81548152906001019060200180831162000b1457829003601f168201915b5050505050908060010160009054906101000a900473ffffffffffffffffffffffffffffffffffffffff169080600201805462000b6f9062002562565b80601f016020809104026020016040519081016040528092919081815260200182805462000b9d9062002562565b801562000bee5780601f1062000bc25761010080835404028352916020019162000bee565b820191906000526020600020905b81548152906001019060200180831162000bd057829003601f168201915b5050505050908060030154908060040160009054906101000a900460ff16905085565b6000600560003373ffffffffffffffffffffffffffffffffffffffff1673ffffffffffffffffffffffffffffffffffffffff16815260200190815260200160002060030160009054906101000a900460ff1662000ca5576040517f08c379a000000000000000000000000000000000000000000000000000000000815260040162000c9c9062002d82565b60405180910390fd5b600073ffffffffffffffffffffffffffffffffffffffff163373ffffffffffffffffffffffffffffffffffffffff160362000d17576040517f08c379a000000000000000000000000000000000000000000000000000000000815260040162000d0e9062002e1a565b60405180910390fd5b6000600560003373ffffffffffffffffffffffffffffffffffffffff1673ffffffffffffffffffffffffffffffffffffffff168152602001908152602001600020600401541162000d9f576040517f08c379a000000000000000000000000000000000000000000000000000000000815260040162000d969062002e8c565b60405180910390fd5b42600560003373ffffffffffffffffffffffffffffffffffffffff1673ffffffffffffffffffffffffffffffffffffffff16815260200190815260200160002060020154111562000e27576040517f08c379a000000000000000000000000000000000000000000000000000000000815260040162000e1e9062002f24565b60405180910390fd5b6000600560003373ffffffffffffffffffffffffffffffffffffffff1673ffffffffffffffffffffffffffffffffffffffff1681526020019081526020016000206004015490506000600560003373ffffffffffffffffffffffffffffffffffffffff1673ffffffffffffffffffffffffffffffffffffffff16815260200190815260200160002060040181905550600060046000600560003373ffffffffffffffffffffffffffffffffffffffff1673ffffffffffffffffffffffffffffffffffffffff16815260200190815260200160002060000160009054906101000a900473ffffffffffffffffffffffffffffffffffffffff1673ffffffffffffffffffffffffffffffffffffffff1673ffffffffffffffffffffffffffffffffffffffff16815260200190815260200160002060009054906101000a900473ffffffffffffffffffffffffffffffffffffffff16905060008190508073ffffffffffffffffffffffffffffffffffffffff1663c32cefa133856040518363ffffffff1660e01b815260040162000fbe92919062002cdf565b600060405180830381600087803b15801562000fd957600080fd5b505af115801562000fee573d6000803e3d6000fd5b505050508073ffffffffffffffffffffffffffffffffffffffff1663f8b2cb4f336040518263ffffffff1660e01b81526004016200102d919062001fd3565b602060405180830381865afa1580156200104b573d6000803e3d6000fd5b505050506040513d601f19601f8201168201806040525081019062001071919062002918565b935050505090565b600081815481106200108a57600080fd5b906000526020600020016000915054906101000a900473ffffffffffffffffffffffffffffffffffffffff1681565b60046020528060005260406000206000915054906101000a900473ffffffffffffffffffffffffffffffffffffffff1681565b600073ffffffffffffffffffffffffffffffffffffffff163373ffffffffffffffffffffffffffffffffffffffff16036200115e576040517f08c379a0000000000000000000000000000000000000000000000000000000008152600401620011559062002f96565b60405180910390fd5b60018060003373ffffffffffffffffffffffffffffffffffffffff1673ffffffffffffffffffffffffffffffffffffffff16815260200190815260200160002060006101000a81548160ff0219169083151502179055506000339080600181540180825580915050600190039060005260206000200160009091909190916101000a81548173ffffffffffffffffffffffffffffffffffffffff021916908373ffffffffffffffffffffffffffffffffffffffff160217905550565b6000600160003373ffffffffffffffffffffffffffffffffffffffff1673ffffffffffffffffffffffffffffffffffffffff16815260200190815260200160002060009054906101000a900460ff16620012ab576040517f08c379a0000000000000000000000000000000000000000000000000000000008152600401620012a2906200260d565b60405180910390fd5b600360003373ffffffffffffffffffffffffffffffffffffffff1673ffffffffffffffffffffffffffffffffffffffff16815260200190815260200160002060040160009054906101000a900460ff16156200133e576040517f08c379a0000000000000000000000000000000000000000000000000000000008152600401620013359062003008565b60405180910390fd5b600084510362001385576040517f08c379a00000000000000000000000000000000000000000000000000000000081526004016200137c90620030a0565b60405180910390fd5b6000835103620013cc576040517f08c379a0000000000000000000000000000000000000000000000000000000008152600401620013c39062003138565b60405180910390fd5b600073ffffffffffffffffffffffffffffffffffffffff16600360003373ffffffffffffffffffffffffffffffffffffffff1673ffffffffffffffffffffffffffffffffffffffff16815260200190815260200160002060010160009054906101000a900473ffffffffffffffffffffffffffffffffffffffff1673ffffffffffffffffffffffffffffffffffffffff1614620014a0576040517f08c379a00000000000000000000000000000000000000000000000000000000081526004016200149790620031d0565b60405180910390fd5b6000848484604051620014b39062001e59565b620014c193929190620031f2565b604051809103906000f080158015620014de573d6000803e3d6000fd5b5090506000819050600081905060008173ffffffffffffffffffffffffffffffffffffffff1663047fc9aa6040518163ffffffff1660e01b8152600401602060405180830381865afa15801562001539573d6000803e3d6000fd5b505050506040513d601f19601f820116820180604052508101906200155f919062002918565b905080600260008573ffffffffffffffffffffffffffffffffffffffff1673ffffffffffffffffffffffffffffffffffffffff1681526020019081526020016000208190555082600460003373ffffffffffffffffffffffffffffffffffffffff1673ffffffffffffffffffffffffffffffffffffffff16815260200190815260200160002060006101000a81548173ffffffffffffffffffffffffffffffffffffffff021916908373ffffffffffffffffffffffffffffffffffffffff1602179055506040518060a001604052808981526020013373ffffffffffffffffffffffffffffffffffffffff16815260200188815260200182815260200160011515815250600360003373ffffffffffffffffffffffffffffffffffffffff1673ffffffffffffffffffffffffffffffffffffffff1681526020019081526020016000206000820151816000019081620016b9919062002bf8565b5060208201518160010160006101000a81548173ffffffffffffffffffffffffffffffffffffffff021916908373ffffffffffffffffffffffffffffffffffffffff160217905550604082015181600201908162001718919062002bf8565b506060820151816003015560808201518160040160006101000a81548160ff02191690831515021790555090505060019450505050509392505050565b600160003373ffffffffffffffffffffffffffffffffffffffff1673ffffffffffffffffffffffffffffffffffffffff16815260200190815260200160002060009054906101000a900460ff16620017e4576040517f08c379a0000000000000000000000000000000000000000000000000000000008152600401620017db906200260d565b60405180910390fd5b600073ffffffffffffffffffffffffffffffffffffffff168173ffffffffffffffffffffffffffffffffffffffff160362001856576040517f08c379a00000000000000000000000000000000000000000000000000000000081526004016200184d9062002717565b60405180910390fd5b600560008273ffffffffffffffffffffffffffffffffffffffff1673ffffffffffffffffffffffffffffffffffffffff16815260200190815260200160002060030160009054906101000a900460ff1615620018e9576040517f08c379a0000000000000000000000000000000000000000000000000000000008152600401620018e090620032b3565b60405180910390fd5b6001600560008373ffffffffffffffffffffffffffffffffffffffff1673ffffffffffffffffffffffffffffffffffffffff16815260200190815260200160002060030160006101000a81548160ff021916908315150217905550600660003373ffffffffffffffffffffffffffffffffffffffff1673ffffffffffffffffffffffffffffffffffffffff168152602001908152602001600020819080600181540180825580915050600190039060005260206000200160009091909190916101000a81548173ffffffffffffffffffffffffffffffffffffffff021916908373ffffffffffffffffffffffffffffffffffffffff16021790555050565b6060600080548060200260200160405190810160405280929190818152602001828054801562001a6d57602002820191906000526020600020905b8160009054906101000a900473ffffffffffffffffffffffffffffffffffffffff1673ffffffffffffffffffffffffffffffffffffffff168152602001906001019080831162001a22575b5050505050905090565b600160003373ffffffffffffffffffffffffffffffffffffffff1673ffffffffffffffffffffffffffffffffffffffff16815260200190815260200160002060009054906101000a900460ff1662001b06576040517f08c379a000000000000000000000000000000000000000000000000000000000815260040162001afd906200260d565b60405180910390fd5b600073ffffffffffffffffffffffffffffffffffffffff168173ffffffffffffffffffffffffffffffffffffffff160362001b78576040517f08c379a000000000000000000000000000000000000000000000000000000000815260040162001b6f9062003325565b60405180910390fd5b6000600560008373ffffffffffffffffffffffffffffffffffffffff1673ffffffffffffffffffffffffffffffffffffffff168152602001908152602001600020600401541162001c00576040517f08c379a000000000000000000000000000000000000000000000000000000000815260040162001bf79062002e8c565b60405180910390fd5b42600560008373ffffffffffffffffffffffffffffffffffffffff1673ffffffffffffffffffffffffffffffffffffffff16815260200190815260200160002060020154111562001c88576040517f08c379a000000000000000000000000000000000000000000000000000000000815260040162001c7f9062002f24565b60405180910390fd5b6000600560008373ffffffffffffffffffffffffffffffffffffffff1673ffffffffffffffffffffffffffffffffffffffff1681526020019081526020016000206004015490506000600560008473ffffffffffffffffffffffffffffffffffffffff1673ffffffffffffffffffffffffffffffffffffffff16815260200190815260200160002060040181905550600060046000600560008673ffffffffffffffffffffffffffffffffffffffff1673ffffffffffffffffffffffffffffffffffffffff16815260200190815260200160002060000160009054906101000a900473ffffffffffffffffffffffffffffffffffffffff1673ffffffffffffffffffffffffffffffffffffffff1673ffffffffffffffffffffffffffffffffffffffff16815260200190815260200160002060009054906101000a900473ffffffffffffffffffffffffffffffffffffffff16905060008190508073ffffffffffffffffffffffffffffffffffffffff1663c32cefa185856040518363ffffffff1660e01b815260040162001e1f92919062002cdf565b600060405180830381600087803b15801562001e3a57600080fd5b505af115801562001e4f573d6000803e3d6000fd5b5050505050505050565b6123ad806200334883390190565b6000604051905090565b600080fd5b600080fd5b600073ffffffffffffffffffffffffffffffffffffffff82169050919050565b600062001ea88262001e7b565b9050919050565b62001eba8162001e9b565b811462001ec657600080fd5b50565b60008135905062001eda8162001eaf565b92915050565b60006020828403121562001ef95762001ef862001e71565b5b600062001f098482850162001ec9565b91505092915050565b6000819050919050565b62001f278162001f12565b82525050565b600060208201905062001f44600083018462001f1c565b92915050565b62001f558162001f12565b811462001f6157600080fd5b50565b60008135905062001f758162001f4a565b92915050565b6000806040838503121562001f955762001f9462001e71565b5b600062001fa58582860162001ec9565b925050602062001fb88582860162001f64565b9150509250929050565b62001fcd8162001e9b565b82525050565b600060208201905062001fea600083018462001fc2565b92915050565b600081519050919050565b600082825260208201905092915050565b60005b838110156200202c5780820151818401526020810190506200200f565b60008484015250505050565b6000601f19601f8301169050919050565b6000620020568262001ff0565b62002062818562001ffb565b9350620020748185602086016200200c565b6200207f8162002038565b840191505092915050565b60008115159050919050565b620020a1816200208a565b82525050565b600060a082019050620020be600083018862001fc2565b8181036020830152620020d2818762002049565b9050620020e3604083018662001f1c565b620020f2606083018562002096565b62002101608083018462001f1c565b9695505050505050565b600080fd5b600080fd5b7f4e487b7100000000000000000000000000000000000000000000000000000000600052604160045260246000fd5b6200214f8262002038565b810181811067ffffffffffffffff8211171562002171576200217062002115565b5b80604052505050565b60006200218662001e67565b905062002194828262002144565b919050565b600067ffffffffffffffff821115620021b757620021b662002115565b5b620021c28262002038565b9050602081019050919050565b82818337600083830152505050565b6000620021f5620021ef8462002199565b6200217a565b90508281526020810184848401111562002214576200221362002110565b5b62002221848285620021cf565b509392505050565b600082601f8301126200224157620022406200210b565b5b813562002253848260208601620021de565b91505092915050565b6000806000806080858703121562002279576200227862001e71565b5b6000620022898782880162001ec9565b945050602085013567ffffffffffffffff811115620022ad57620022ac62001e76565b5b620022bb8782880162002229565b9350506040620022ce8782880162001f64565b9250506060620022e18782880162001f64565b91505092959194509250565b600060a082019050818103600083015262002309818862002049565b90506200231a602083018762001fc2565b81810360408301526200232e818662002049565b90506200233f606083018562001f1c565b6200234e608083018462002096565b9695505050505050565b60006020828403121562002371576200237062001e71565b5b6000620023818482850162001f64565b91505092915050565b600080600060608486031215620023a657620023a562001e71565b5b600084013567ffffffffffffffff811115620023c757620023c662001e76565b5b620023d58682870162002229565b935050602084013567ffffffffffffffff811115620023f957620023f862001e76565b5b620024078682870162002229565b92505060406200241a8682870162001f64565b9150509250925092565b60006020820190506200243b600083018462002096565b92915050565b600081519050919050565b600082825260208201905092915050565b6000819050602082019050919050565b620024788162001e9b565b82525050565b60006200248c83836200246d565b60208301905092915050565b6000602082019050919050565b6000620024b28262002441565b620024be81856200244c565b9350620024cb836200245d565b8060005b8381101562002502578151620024e688826200247e565b9750620024f38362002498565b925050600181019050620024cf565b5085935050505092915050565b600060208201905081810360008301526200252b8184620024a5565b905092915050565b7f4e487b7100000000000000000000000000000000000000000000000000000000600052602260045260246000fd5b600060028204905060018216806200257b57607f821691505b60208210810362002591576200259062002533565b5b50919050565b7f4f6e6c7920612072656769737465726564206f7267616e697a6174696f6e206360008201527f616e20706572666f726d207468697320616374696f6e2e000000000000000000602082015250565b6000620025f560378362001ffb565b9150620026028262002597565b604082019050919050565b600060208201905081810360008301526200262881620025e6565b9050919050565b7f4f6e6c7920612072656769737465726564206f7267616e697a6174696f6e206360008201527f616e207365742076657374696e672064657461696c732e000000000000000000602082015250565b60006200268d60378362001ffb565b91506200269a826200262f565b604082019050919050565b60006020820190508181036000830152620026c0816200267e565b9050919050565b7f496e76616c6964207374616b65686f6c64657220616464726573732e00000000600082015250565b6000620026ff601c8362001ffb565b91506200270c82620026c7565b602082019050919050565b600060208201905081810360008301526200273281620026f0565b9050919050565b7f50726f7669646520612076616c6964207374616b65686f6c646572207479706560008201527f2e00000000000000000000000000000000000000000000000000000000000000602082015250565b60006200279760218362001ffb565b9150620027a48262002739565b604082019050919050565b60006020820190508181036000830152620027ca8162002788565b9050919050565b7f56657374696e6720706572696f64206d7573742062652067726561746572207460008201527f68616e207a65726f2e0000000000000000000000000000000000000000000000602082015250565b60006200282f60298362001ffb565b91506200283c82620027d1565b604082019050919050565b60006020820190508181036000830152620028628162002820565b9050919050565b7f546f6b656e206e6f7420666f756e6420666f7220746865206f7267616e69736160008201527f74696f6e2e000000000000000000000000000000000000000000000000000000602082015250565b6000620028c760258362001ffb565b9150620028d48262002869565b604082019050919050565b60006020820190508181036000830152620028fa81620028b8565b9050919050565b600081519050620029128162001f4a565b92915050565b60006020828403121562002931576200293062001e71565b5b6000620029418482850162002901565b91505092915050565b7f4f7267616e69736174696f6e206973206f7574206f6620746f6b656e732e0000600082015250565b600062002982601e8362001ffb565b91506200298f826200294a565b602082019050919050565b60006020820190508181036000830152620029b58162002973565b9050919050565b7f4e487b7100000000000000000000000000000000000000000000000000000000600052601160045260246000fd5b6000620029f88262001f12565b915062002a058362001f12565b925082820190508082111562002a205762002a1f620029bc565b5b92915050565b60008190508160005260206000209050919050565b60006020601f8301049050919050565b600082821b905092915050565b60006008830262002a8a7fffffffffffffffffffffffffffffffffffffffffffffffffffffffffffffffff8262002a4b565b62002a96868362002a4b565b95508019841693508086168417925050509392505050565b6000819050919050565b600062002ad962002ad362002acd8462001f12565b62002aae565b62001f12565b9050919050565b6000819050919050565b62002af58362002ab8565b62002b0d62002b048262002ae0565b84845462002a58565b825550505050565b600090565b62002b2462002b15565b62002b3181848462002aea565b505050565b5b8181101562002b595762002b4d60008262002b1a565b60018101905062002b37565b5050565b601f82111562002ba85762002b728162002a26565b62002b7d8462002a3b565b8101602085101562002b8d578190505b62002ba562002b9c8562002a3b565b83018262002b36565b50505b505050565b600082821c905092915050565b600062002bcd6000198460080262002bad565b1980831691505092915050565b600062002be8838362002bba565b9150826002028217905092915050565b62002c038262001ff0565b67ffffffffffffffff81111562002c1f5762002c1e62002115565b5b62002c2b825462002562565b62002c3882828562002b5d565b600060209050601f83116001811462002c70576000841562002c5b578287015190505b62002c67858262002bda565b86555062002cd7565b601f19841662002c808662002a26565b60005b8281101562002caa5784890151825560018201915060208501945060208101905062002c83565b8683101562002cca578489015162002cc6601f89168262002bba565b8355505b6001600288020188555050505b505050505050565b600060408201905062002cf6600083018562001fc2565b62002d05602083018462001f1c565b9392505050565b7f4f6e6c792077686974656c6973746564207374616b65686f6c6465727320636160008201527f6e20706572666f726d207468697320616374696f6e2e00000000000000000000602082015250565b600062002d6a60368362001ffb565b915062002d778262002d0c565b604082019050919050565b6000602082019050818103600083015262002d9d8162002d5b565b9050919050565b7f5468652061646472657373206973206e6f7420612076616c696420616464726560008201527f73732e0000000000000000000000000000000000000000000000000000000000602082015250565b600062002e0260238362001ffb565b915062002e0f8262002da4565b604082019050919050565b6000602082019050818103600083015262002e358162002df3565b9050919050565b7f4e6f20746f6b656e7320617661696c61626c6520746f20636c61696d2e000000600082015250565b600062002e74601d8362001ffb565b915062002e818262002e3c565b602082019050919050565b6000602082019050818103600083015262002ea78162002e65565b9050919050565b7f56657374696e6720706572696f64206e6f742079657420636f6d706c6574656460008201527f2e00000000000000000000000000000000000000000000000000000000000000602082015250565b600062002f0c60218362001ffb565b915062002f198262002eae565b604082019050919050565b6000602082019050818103600083015262002f3f8162002efd565b9050919050565b7f496e76616c696420616464726573730000000000000000000000000000000000600082015250565b600062002f7e600f8362001ffb565b915062002f8b8262002f46565b602082019050919050565b6000602082019050818103600083015262002fb18162002f6f565b9050919050565b7f4f7267616e69736174696f6e20616c7265616479207265676973746572656400600082015250565b600062002ff0601f8362001ffb565b915062002ffd8262002fb8565b602082019050919050565b60006020820190508181036000830152620030238162002fe1565b9050919050565b7f50726f7669646520612076616c6964206f7267616e69736174696f6e206e616d60008201527f6500000000000000000000000000000000000000000000000000000000000000602082015250565b60006200308860218362001ffb565b915062003095826200302a565b604082019050919050565b60006020820190508181036000830152620030bb8162003079565b9050919050565b7f50726f76696465206120746f6b656e206e616d652c20692e652e2c20616e206160008201527f6262726576696174696f6e000000000000000000000000000000000000000000602082015250565b600062003120602b8362001ffb565b91506200312d82620030c2565b604082019050919050565b60006020820190508181036000830152620031538162003111565b9050919050565b7f416e206f7267616e69736174696f6e2068617320616c726561647920676f6e6560008201527f2062792074686174206164647265737300000000000000000000000000000000602082015250565b6000620031b860308362001ffb565b9150620031c5826200315a565b604082019050919050565b60006020820190508181036000830152620031eb81620031a9565b9050919050565b600060608201905081810360008301526200320e818662002049565b9050818103602083015262003224818562002049565b905062003235604083018462001f1c565b949350505050565b7f5374616b65686f6c6465722068617320616c7265616479206265656e2077686960008201527f74656c69737465642e0000000000000000000000000000000000000000000000602082015250565b60006200329b60298362001ffb565b9150620032a8826200323d565b604082019050919050565b60006020820190508181036000830152620032ce816200328c565b9050919050565b7f50726f7669646520612076616c69642061646472657373000000000000000000600082015250565b60006200330d60178362001ffb565b91506200331a82620032d5565b602082019050919050565b600060208201905081810360008301526200334081620032fe565b905091905056fe60806040523480156200001157600080fd5b50604051620023ad380380620023ad8339818101604052810190620000379190620003c6565b828281600390816200004a9190620006a1565b5080600490816200005c9190620006a1565b5050506200007130826200008160201b60201c565b80600581905550505050620008a3565b600073ffffffffffffffffffffffffffffffffffffffff168273ffffffffffffffffffffffffffffffffffffffff1603620000f3576040517f08c379a0000000000000000000000000000000000000000000000000000000008152600401620000ea90620007e9565b60405180910390fd5b6200010760008383620001ee60201b60201c565b80600260008282546200011b91906200083a565b92505081905550806000808473ffffffffffffffffffffffffffffffffffffffff1673ffffffffffffffffffffffffffffffffffffffff168152602001908152602001600020600082825401925050819055508173ffffffffffffffffffffffffffffffffffffffff16600073ffffffffffffffffffffffffffffffffffffffff167fddf252ad1be2c89b69c2b068fc378daa952ba7f163c4a11628f55a4df523b3ef83604051620001ce919062000886565b60405180910390a3620001ea60008383620001f360201b60201c565b5050565b505050565b505050565b6000604051905090565b600080fd5b600080fd5b600080fd5b600080fd5b6000601f19601f8301169050919050565b7f4e487b7100000000000000000000000000000000000000000000000000000000600052604160045260246000fd5b620002618262000216565b810181811067ffffffffffffffff8211171562000283576200028262000227565b5b80604052505050565b600062000298620001f8565b9050620002a6828262000256565b919050565b600067ffffffffffffffff821115620002c957620002c862000227565b5b620002d48262000216565b9050602081019050919050565b60005b8381101562000301578082015181840152602081019050620002e4565b60008484015250505050565b6000620003246200031e84620002ab565b6200028c565b90508281526020810184848401111562000343576200034262000211565b5b62000350848285620002e1565b509392505050565b600082601f83011262000370576200036f6200020c565b5b8151620003828482602086016200030d565b91505092915050565b6000819050919050565b620003a0816200038b565b8114620003ac57600080fd5b50565b600081519050620003c08162000395565b92915050565b600080600060608486031215620003e257620003e162000202565b5b600084015167ffffffffffffffff81111562000403576200040262000207565b5b620004118682870162000358565b935050602084015167ffffffffffffffff81111562000435576200043462000207565b5b620004438682870162000358565b92505060406200045686828701620003af565b9150509250925092565b600081519050919050565b7f4e487b7100000000000000000000000000000000000000000000000000000000600052602260045260246000fd5b60006002820490506001821680620004b357607f821691505b602082108103620004c957620004c86200046b565b5b50919050565b60008190508160005260206000209050919050565b60006020601f8301049050919050565b600082821b905092915050565b600060088302620005337fffffffffffffffffffffffffffffffffffffffffffffffffffffffffffffffff82620004f4565b6200053f8683620004f4565b95508019841693508086168417925050509392505050565b6000819050919050565b6000620005826200057c62000576846200038b565b62000557565b6200038b565b9050919050565b6000819050919050565b6200059e8362000561565b620005b6620005ad8262000589565b84845462000501565b825550505050565b600090565b620005cd620005be565b620005da81848462000593565b505050565b5b818110156200060257620005f6600082620005c3565b600181019050620005e0565b5050565b601f82111562000651576200061b81620004cf565b6200062684620004e4565b8101602085101562000636578190505b6200064e6200064585620004e4565b830182620005df565b50505b505050565b600082821c905092915050565b6000620006766000198460080262000656565b1980831691505092915050565b600062000691838362000663565b9150826002028217905092915050565b620006ac8262000460565b67ffffffffffffffff811115620006c857620006c762000227565b5b620006d482546200049a565b620006e182828562000606565b600060209050601f83116001811462000719576000841562000704578287015190505b62000710858262000683565b86555062000780565b601f1984166200072986620004cf565b60005b8281101562000753578489015182556001820191506020850194506020810190506200072c565b868310156200077357848901516200076f601f89168262000663565b8355505b6001600288020188555050505b505050505050565b600082825260208201905092915050565b7f45524332303a206d696e7420746f20746865207a65726f206164647265737300600082015250565b6000620007d1601f8362000788565b9150620007de8262000799565b602082019050919050565b600060208201905081810360008301526200080481620007c2565b9050919050565b7f4e487b7100000000000000000000000000000000000000000000000000000000600052601160045260246000fd5b600062000847826200038b565b915062000854836200038b565b92508282019050808211156200086f576200086e6200080b565b5b92915050565b62000880816200038b565b82525050565b60006020820190506200089d600083018462000875565b92915050565b611afa80620008b36000396000f3fe608060405234801561001057600080fd5b506004361061012c5760003560e01c806379cc6790116100ad578063a9059cbb11610071578063a9059cbb14610359578063c32cefa114610389578063dd62ed3e146103a5578063e3d670d7146103d5578063f8b2cb4f146104055761012c565b806379cc6790146102b557806395d89b41146102d15780639dc29fac146102ef578063a44b47f71461030b578063a457c2d7146103295761012c565b806327e235e3116100f457806327e235e3146101eb578063313ce5671461021b578063395093511461023957806342966c681461026957806370a08231146102855761012c565b8063047fc9aa1461013157806306fdde031461014f578063095ea7b31461016d57806318160ddd1461019d57806323b872dd146101bb575b600080fd5b610139610435565b6040516101469190611103565b60405180910390f35b61015761043f565b60405161016491906111ae565b60405180910390f35b6101876004803603810190610182919061125f565b6104d1565b60405161019491906112ba565b60405180910390f35b6101a56104f4565b6040516101b29190611103565b60405180910390f35b6101d560048036038101906101d091906112d5565b6104fe565b6040516101e291906112ba565b60405180910390f35b61020560048036038101906102009190611328565b61052d565b6040516102129190611103565b60405180910390f35b610223610545565b6040516102309190611371565b60405180910390f35b610253600480360381019061024e919061125f565b61054e565b60405161026091906112ba565b60405180910390f35b610283600480360381019061027e919061138c565b610585565b005b61029f600480360381019061029a9190611328565b610599565b6040516102ac9190611103565b60405180910390f35b6102cf60048036038101906102ca919061125f565b6105e1565b005b6102d9610601565b6040516102e691906111ae565b60405180910390f35b6103096004803603810190610304919061125f565b610693565b005b6103136107aa565b6040516103209190611103565b60405180910390f35b610343600480360381019061033e919061125f565b6107b0565b60405161035091906112ba565b60405180910390f35b610373600480360381019061036e919061125f565b610827565b60405161038091906112ba565b60405180910390f35b6103a3600480360381019061039e919061125f565b61084a565b005b6103bf60048036038101906103ba91906113b9565b610958565b6040516103cc9190611103565b60405180910390f35b6103ef60048036038101906103ea9190611328565b6109df565b6040516103fc9190611103565b60405180910390f35b61041f600480360381019061041a9190611328565b6109f7565b60405161042c9190611103565b60405180910390f35b6000600554905090565b60606003805461044e90611428565b80601f016020809104026020016040519081016040528092919081815260200182805461047a90611428565b80156104c75780601f1061049c576101008083540402835291602001916104c7565b820191906000526020600020905b8154815290600101906020018083116104aa57829003601f168201915b5050505050905090565b6000806104dc610a40565b90506104e9818585610a48565b600191505092915050565b6000600254905090565b600080610509610a40565b9050610516858285610c11565b610521858585610c9d565b60019150509392505050565b60076020528060005260406000206000915090505481565b60006012905090565b600080610559610a40565b905061057a81858561056b8589610958565b6105759190611488565b610a48565b600191505092915050565b610596610590610a40565b82610f13565b50565b60008060008373ffffffffffffffffffffffffffffffffffffffff1673ffffffffffffffffffffffffffffffffffffffff168152602001908152602001600020549050919050565b6105f3826105ed610a40565b83610c11565b6105fd8282610f13565b5050565b60606004805461061090611428565b80601f016020809104026020016040519081016040528092919081815260200182805461063c90611428565b80156106895780601f1061065e57610100808354040283529160200191610689565b820191906000526020600020905b81548152906001019060200180831161066c57829003601f168201915b5050505050905090565b600073ffffffffffffffffffffffffffffffffffffffff168273ffffffffffffffffffffffffffffffffffffffff1603610702576040517f08c379a00000000000000000000000000000000000000000000000000000000081526004016106f990611508565b60405180910390fd5b600554811115610747576040517f08c379a000000000000000000000000000000000000000000000000000000000815260040161073e90611574565b60405180910390fd5b80600560008282546107599190611594565b92505081905550600554600660008473ffffffffffffffffffffffffffffffffffffffff1673ffffffffffffffffffffffffffffffffffffffff168152602001908152602001600020819055505050565b60055481565b6000806107bb610a40565b905060006107c98286610958565b90508381101561080e576040517f08c379a00000000000000000000000000000000000000000000000000000000081526004016108059061163a565b60405180910390fd5b61081b8286868403610a48565b60019250505092915050565b600080610832610a40565b905061083f818585610c9d565b600191505092915050565b600073ffffffffffffffffffffffffffffffffffffffff168273ffffffffffffffffffffffffffffffffffffffff16036108b9576040517f08c379a00000000000000000000000000000000000000000000000000000000081526004016108b090611508565b60405180910390fd5b6005548111156108fe576040517f08c379a00000000000000000000000000000000000000000000000000000000081526004016108f590611574565b60405180910390fd5b80600760008473ffffffffffffffffffffffffffffffffffffffff1673ffffffffffffffffffffffffffffffffffffffff168152602001908152602001600020600082825461094d9190611488565b925050819055505050565b6000600160008473ffffffffffffffffffffffffffffffffffffffff1673ffffffffffffffffffffffffffffffffffffffff16815260200190815260200160002060008373ffffffffffffffffffffffffffffffffffffffff1673ffffffffffffffffffffffffffffffffffffffff16815260200190815260200160002054905092915050565b60066020528060005260406000206000915090505481565b6000600760008373ffffffffffffffffffffffffffffffffffffffff1673ffffffffffffffffffffffffffffffffffffffff168152602001908152602001600020549050919050565b600033905090565b600073ffffffffffffffffffffffffffffffffffffffff168373ffffffffffffffffffffffffffffffffffffffff1603610ab7576040517f08c379a0000000000000000000000000000000000000000000000000000000008152600401610aae906116cc565b60405180910390fd5b600073ffffffffffffffffffffffffffffffffffffffff168273ffffffffffffffffffffffffffffffffffffffff1603610b26576040517f08c379a0000000000000000000000000000000000000000000000000000000008152600401610b1d9061175e565b60405180910390fd5b80600160008573ffffffffffffffffffffffffffffffffffffffff1673ffffffffffffffffffffffffffffffffffffffff16815260200190815260200160002060008473ffffffffffffffffffffffffffffffffffffffff1673ffffffffffffffffffffffffffffffffffffffff168152602001908152602001600020819055508173ffffffffffffffffffffffffffffffffffffffff168373ffffffffffffffffffffffffffffffffffffffff167f8c5be1e5ebec7d5bd14f71427d1e84f3dd0314c0f7b2291e5b200ac8c7c3b92583604051610c049190611103565b60405180910390a3505050565b6000610c1d8484610958565b90507fffffffffffffffffffffffffffffffffffffffffffffffffffffffffffffffff8114610c975781811015610c89576040517f08c379a0000000000000000000000000000000000000000000000000000000008152600401610c80906117ca565b60405180910390fd5b610c968484848403610a48565b5b50505050565b600073ffffffffffffffffffffffffffffffffffffffff168373ffffffffffffffffffffffffffffffffffffffff1603610d0c576040517f08c379a0000000000000000000000000000000000000000000000000000000008152600401610d039061185c565b60405180910390fd5b600073ffffffffffffffffffffffffffffffffffffffff168273ffffffffffffffffffffffffffffffffffffffff1603610d7b576040517f08c379a0000000000000000000000000000000000000000000000000000000008152600401610d72906118ee565b60405180910390fd5b610d868383836110e0565b60008060008573ffffffffffffffffffffffffffffffffffffffff1673ffffffffffffffffffffffffffffffffffffffff16815260200190815260200160002054905081811015610e0c576040517f08c379a0000000000000000000000000000000000000000000000000000000008152600401610e0390611980565b60405180910390fd5b8181036000808673ffffffffffffffffffffffffffffffffffffffff1673ffffffffffffffffffffffffffffffffffffffff16815260200190815260200160002081905550816000808573ffffffffffffffffffffffffffffffffffffffff1673ffffffffffffffffffffffffffffffffffffffff168152602001908152602001600020600082825401925050819055508273ffffffffffffffffffffffffffffffffffffffff168473ffffffffffffffffffffffffffffffffffffffff167fddf252ad1be2c89b69c2b068fc378daa952ba7f163c4a11628f55a4df523b3ef84604051610efa9190611103565b60405180910390a3610f0d8484846110e5565b50505050565b600073ffffffffffffffffffffffffffffffffffffffff168273ffffffffffffffffffffffffffffffffffffffff1603610f82576040517f08c379a0000000000000000000000000000000000000000000000000000000008152600401610f7990611a12565b60405180910390fd5b610f8e826000836110e0565b60008060008473ffffffffffffffffffffffffffffffffffffffff1673ffffffffffffffffffffffffffffffffffffffff16815260200190815260200160002054905081811015611014576040517f08c379a000000000000000000000000000000000000000000000000000000000815260040161100b90611aa4565b60405180910390fd5b8181036000808573ffffffffffffffffffffffffffffffffffffffff1673ffffffffffffffffffffffffffffffffffffffff1681526020019081526020016000208190555081600260008282540392505081905550600073ffffffffffffffffffffffffffffffffffffffff168373ffffffffffffffffffffffffffffffffffffffff167fddf252ad1be2c89b69c2b068fc378daa952ba7f163c4a11628f55a4df523b3ef846040516110c79190611103565b60405180910390a36110db836000846110e5565b505050565b505050565b505050565b6000819050919050565b6110fd816110ea565b82525050565b600060208201905061111860008301846110f4565b92915050565b600081519050919050565b600082825260208201905092915050565b60005b8381101561115857808201518184015260208101905061113d565b60008484015250505050565b6000601f19601f8301169050919050565b60006111808261111e565b61118a8185611129565b935061119a81856020860161113a565b6111a381611164565b840191505092915050565b600060208201905081810360008301526111c88184611175565b905092915050565b600080fd5b600073ffffffffffffffffffffffffffffffffffffffff82169050919050565b6000611200826111d5565b9050919050565b611210816111f5565b811461121b57600080fd5b50565b60008135905061122d81611207565b92915050565b61123c816110ea565b811461124757600080fd5b50565b60008135905061125981611233565b92915050565b60008060408385031215611276576112756111d0565b5b60006112848582860161121e565b92505060206112958582860161124a565b9150509250929050565b60008115159050919050565b6112b48161129f565b82525050565b60006020820190506112cf60008301846112ab565b92915050565b6000806000606084860312156112ee576112ed6111d0565b5b60006112fc8682870161121e565b935050602061130d8682870161121e565b925050604061131e8682870161124a565b9150509250925092565b60006020828403121561133e5761133d6111d0565b5b600061134c8482850161121e565b91505092915050565b600060ff82169050919050565b61136b81611355565b82525050565b60006020820190506113866000830184611362565b92915050565b6000602082840312156113a2576113a16111d0565b5b60006113b08482850161124a565b91505092915050565b600080604083850312156113d0576113cf6111d0565b5b60006113de8582860161121e565b92505060206113ef8582860161121e565b9150509250929050565b7f4e487b7100000000000000000000000000000000000000000000000000000000600052602260045260246000fd5b6000600282049050600182168061144057607f821691505b602082108103611453576114526113f9565b5b50919050565b7f4e487b7100000000000000000000000000000000000000000000000000000000600052601160045260246000fd5b6000611493826110ea565b915061149e836110ea565b92508282019050808211156114b6576114b5611459565b5b92915050565b7f41646472657373206e6f742076616c6964000000000000000000000000000000600082015250565b60006114f2601183611129565b91506114fd826114bc565b602082019050919050565b60006020820190508181036000830152611521816114e5565b9050919050565b7f56616c7565206578636565647320746f74616c20737570706c79000000000000600082015250565b600061155e601a83611129565b915061156982611528565b602082019050919050565b6000602082019050818103600083015261158d81611551565b9050919050565b600061159f826110ea565b91506115aa836110ea565b92508282039050818111156115c2576115c1611459565b5b92915050565b7f45524332303a2064656372656173656420616c6c6f77616e63652062656c6f7760008201527f207a65726f000000000000000000000000000000000000000000000000000000602082015250565b6000611624602583611129565b915061162f826115c8565b604082019050919050565b6000602082019050818103600083015261165381611617565b9050919050565b7f45524332303a20617070726f76652066726f6d20746865207a65726f2061646460008201527f7265737300000000000000000000000000000000000000000000000000000000602082015250565b60006116b6602483611129565b91506116c18261165a565b604082019050919050565b600060208201905081810360008301526116e5816116a9565b9050919050565b7f45524332303a20617070726f766520746f20746865207a65726f20616464726560008201527f7373000000000000000000000000000000000000000000000000000000000000602082015250565b6000611748602283611129565b9150611753826116ec565b604082019050919050565b600060208201905081810360008301526117778161173b565b9050919050565b7f45524332303a20696e73756666696369656e7420616c6c6f77616e6365000000600082015250565b60006117b4601d83611129565b91506117bf8261177e565b602082019050919050565b600060208201905081810360008301526117e3816117a7565b9050919050565b7f45524332303a207472616e736665722066726f6d20746865207a65726f20616460008201527f6472657373000000000000000000000000000000000000000000000000000000602082015250565b6000611846602583611129565b9150611851826117ea565b604082019050919050565b6000602082019050818103600083015261187581611839565b9050919050565b7f45524332303a207472616e7366657220746f20746865207a65726f206164647260008201527f6573730000000000000000000000000000000000000000000000000000000000602082015250565b60006118d8602383611129565b91506118e38261187c565b604082019050919050565b60006020820190508181036000830152611907816118cb565b9050919050565b7f45524332303a207472616e7366657220616d6f756e742065786365656473206260008201527f616c616e63650000000000000000000000000000000000000000000000000000602082015250565b600061196a602683611129565b91506119758261190e565b604082019050919050565b600060208201905081810360008301526119998161195d565b9050919050565b7f45524332303a206275726e2066726f6d20746865207a65726f2061646472657360008201527f7300000000000000000000000000000000000000000000000000000000000000602082015250565b60006119fc602183611129565b9150611a07826119a0565b604082019050919050565b60006020820190508181036000830152611a2b816119ef565b9050919050565b7f45524332303a206275726e20616d6f756e7420657863656564732062616c616e60008201527f6365000000000000000000000000000000000000000000000000000000000000602082015250565b6000611a8e602283611129565b9150611a9982611a32565b604082019050919050565b60006020820190508181036000830152611abd81611a81565b905091905056fea2646970667358221220f77929f0b749ff7b948a41d8a0bbdbe21ecb505bd4922699eb26a29e9523e5b864736f6c63430008120033a26469706673582212200e197c29eeb441ef44b398a0225362f247ba87e78c6f429d9c7ffe557483f4cf64736f6c63430008120033",
  "linkReferences": {},
  "deployedLinkReferences": {}
}