{
  "_format": "hh-sol-artifact-1",
  "contractName": "CoinVest",
  "sourceName": "contracts/coinVest.sol",
  "abi": [
    {
      "inputs": [],
      "name": "claimTokens",
      "outputs": [],
      "stateMutability": "nonpayable",
      "type": "function"
    },
    {
      "inputs": [
        {
          "internalType": "address",
          "name": "_stakeholderAddr",
          "type": "address"
        }
      ],
      "name": "claimTokensFor",
      "outputs": [],
      "stateMutability": "nonpayable",
      "type": "function"
    },
    {
      "inputs": [],
      "name": "getOrgs",
      "outputs": [
        {
          "internalType": "address[]",
          "name": "",
          "type": "address[]"
        }
      ],
      "stateMutability": "view",
      "type": "function"
    },
    {
      "inputs": [
        {
          "internalType": "string",
          "name": "_orgName",
          "type": "string"
        },
        {
          "internalType": "string",
          "name": "_symbol",
          "type": "string"
        },
        {
          "internalType": "uint256",
          "name": "_totalSupply",
          "type": "uint256"
        }
      ],
      "name": "orgToken",
      "outputs": [
        {
          "internalType": "bool",
          "name": "",
          "type": "bool"
        }
      ],
      "stateMutability": "nonpayable",
      "type": "function"
    },
    {
      "inputs": [
        {
          "internalType": "address",
          "name": "",
          "type": "address"
        }
      ],
      "name": "orgTokenAddrs",
      "outputs": [
        {
          "internalType": "address",
          "name": "",
          "type": "address"
        }
      ],
      "stateMutability": "view",
      "type": "function"
    },
    {
      "inputs": [
        {
          "internalType": "address",
          "name": "",
          "type": "address"
        }
      ],
      "name": "orgTokenBalances",
      "outputs": [
        {
          "internalType": "uint256",
          "name": "",
          "type": "uint256"
        }
      ],
      "stateMutability": "view",
      "type": "function"
    },
    {
      "inputs": [
        {
          "internalType": "address",
          "name": "",
          "type": "address"
        }
      ],
      "name": "organisations",
      "outputs": [
        {
          "internalType": "string",
          "name": "name",
          "type": "string"
        },
        {
          "internalType": "address",
          "name": "admin",
          "type": "address"
        },
        {
          "internalType": "string",
          "name": "symbol",
          "type": "string"
        },
        {
          "internalType": "uint256",
          "name": "totalSupply",
          "type": "uint256"
        },
        {
          "internalType": "bool",
          "name": "registered",
          "type": "bool"
        }
      ],
      "stateMutability": "view",
      "type": "function"
    },
    {
      "inputs": [
        {
          "internalType": "uint256",
          "name": "",
          "type": "uint256"
        }
      ],
      "name": "orgs",
      "outputs": [
        {
          "internalType": "address",
          "name": "",
          "type": "address"
        }
      ],
      "stateMutability": "view",
      "type": "function"
    },
    {
      "inputs": [],
      "name": "registerAsOrg",
      "outputs": [],
      "stateMutability": "nonpayable",
      "type": "function"
    },
    {
      "inputs": [
        {
          "internalType": "address",
          "name": "_stakeholderAddr",
          "type": "address"
        },
        {
          "internalType": "string",
          "name": "_tag",
          "type": "string"
        },
        {
          "internalType": "uint256",
          "name": "_amount",
          "type": "uint256"
        },
        {
          "internalType": "uint256",
          "name": "_vestingPeriod",
          "type": "uint256"
        }
      ],
      "name": "setVestingDetails",
      "outputs": [],
      "stateMutability": "nonpayable",
      "type": "function"
    },
    {
      "inputs": [
        {
          "internalType": "address",
          "name": "_stakeholderAddr",
          "type": "address"
        }
      ],
      "name": "setWhitelist",
      "outputs": [],
      "stateMutability": "nonpayable",
      "type": "function"
    },
    {
      "inputs": [
        {
          "internalType": "address",
          "name": "",
          "type": "address"
        }
      ],
      "name": "stakeholderDetails",
      "outputs": [
        {
          "internalType": "address",
          "name": "admin",
          "type": "address"
        },
        {
          "internalType": "string",
          "name": "tag",
          "type": "string"
        },
        {
          "internalType": "uint256",
          "name": "vestingPeriod",
          "type": "uint256"
        },
        {
          "internalType": "bool",
          "name": "isWhitelisted",
          "type": "bool"
        },
        {
          "internalType": "uint256",
          "name": "balanceOfStake",
          "type": "uint256"
        }
      ],
      "stateMutability": "view",
      "type": "function"
    },
    {
      "inputs": [
        {
          "internalType": "address",
          "name": "",
          "type": "address"
        },
        {
          "internalType": "uint256",
          "name": "",
          "type": "uint256"
        }
      ],
      "name": "whitelistedAddresses",
      "outputs": [
        {
          "internalType": "address",
          "name": "",
          "type": "address"
        }
      ],
      "stateMutability": "view",
      "type": "function"
    }
  ],
  "bytecode": "0x608060405234801561001057600080fd5b506157b8806100206000396000f3fe60806040523480156200001157600080fd5b5060043610620000e25760003560e01c80634f5c2e6c1162000099578063854cff2f116200006f578063854cff2f146200026b578063c1352f41146200028b578063ede7677514620002c1578063ee0b04be14620002e357620000e2565b80634f5c2e6c14620001f357806379f3fb7d14620002295780637e38635f146200023557620000e2565b80630aeb3ff114620000e75780630bdece24146200011d57806321437185146200015357806328c7e9cb146200018d578063360d8ebf14620001ad57806348c54b9d14620001e7575b600080fd5b620001056004803603810190620000ff919062001ed6565b62000303565b60405162000114919062001f23565b60405180910390f35b6200013b600480360381019062000135919062001f71565b6200031b565b6040516200014a919062001fc9565b60405180910390f35b6200017160048036038101906200016b919062001ed6565b6200036a565b604051620001849594939291906200209d565b60405180910390f35b620001ab6004803603810190620001a5919062002252565b6200045d565b005b620001cb6004803603810190620001c5919062001ed6565b62000a78565b604051620001de959493929190620022e3565b60405180910390f35b620001f162000bfb565b005b6200021160048036038101906200020b91906200234e565b62000fdf565b60405162000220919062001fc9565b60405180910390f35b620002336200101f565b005b6200025360048036038101906200024d919062002380565b620011dd565b6040516200026291906200241a565b60405180910390f35b62000289600480360381019062000283919062001ed6565b62001718565b005b620002a96004803603810190620002a3919062001ed6565b620019aa565b604051620002b8919062001fc9565b60405180910390f35b620002cb620019dd565b604051620002da919062002505565b60405180910390f35b620003016004803603810190620002fb919062001ed6565b62001a6d565b005b60026020528060005260406000206000915090505481565b600660205281600052604060002081815481106200033857600080fd5b906000526020600020016000915091509054906101000a900473ffffffffffffffffffffffffffffffffffffffff1681565b60056020528060005260406000206000915090508060000160009054906101000a900473ffffffffffffffffffffffffffffffffffffffff1690806001018054620003b59062002558565b80601f0160208091040260200160405190810160405280929190818152602001828054620003e39062002558565b8015620004345780601f10620004085761010080835404028352916020019162000434565b820191906000526020600020905b8154815290600101906020018083116200041657829003601f168201915b5050505050908060020154908060030160009054906101000a900460ff16908060040154905085565b600160003373ffffffffffffffffffffffffffffffffffffffff1673ffffffffffffffffffffffffffffffffffffffff16815260200190815260200160002060009054906101000a900460ff16620004ec576040517f08c379a0000000000000000000000000000000000000000000000000000000008152600401620004e39062002603565b60405180910390fd5b600360003373ffffffffffffffffffffffffffffffffffffffff1673ffffffffffffffffffffffffffffffffffffffff16815260200190815260200160002060040160009054906101000a900460ff166200057e576040517f08c379a000000000000000000000000000000000000000000000000000000000815260040162000575906200269b565b60405180910390fd5b600073ffffffffffffffffffffffffffffffffffffffff168473ffffffffffffffffffffffffffffffffffffffff1603620005f0576040517f08c379a0000000000000000000000000000000000000000000000000000000008152600401620005e7906200270d565b60405180910390fd5b600083510362000637576040517f08c379a00000000000000000000000000000000000000000000000000000000081526004016200062e90620027a5565b60405180910390fd5b600081116200067d576040517f08c379a000000000000000000000000000000000000000000000000000000000815260040162000674906200283d565b60405180910390fd5b6000600460003373ffffffffffffffffffffffffffffffffffffffff1673ffffffffffffffffffffffffffffffffffffffff16815260200190815260200160002060009054906101000a900473ffffffffffffffffffffffffffffffffffffffff1690506000819050600073ffffffffffffffffffffffffffffffffffffffff168273ffffffffffffffffffffffffffffffffffffffff160362000758576040517f08c379a00000000000000000000000000000000000000000000000000000000081526004016200074f90620028d5565b60405180910390fd5b838173ffffffffffffffffffffffffffffffffffffffff166370a08231846040518263ffffffff1660e01b815260040162000794919062001fc9565b602060405180830381865afa158015620007b2573d6000803e3d6000fd5b505050506040513d601f19601f82011682018060405250810190620007d891906200290e565b10156200081c576040517f08c379a0000000000000000000000000000000000000000000000000000000008152600401620008139062002990565b60405180910390fd5b600083905060008142620008319190620029e1565b90506040518060a001604052803373ffffffffffffffffffffffffffffffffffffffff16815260200188815260200182815260200160001515815260200187815250600560008a73ffffffffffffffffffffffffffffffffffffffff1673ffffffffffffffffffffffffffffffffffffffff16815260200190815260200160002060008201518160000160006101000a81548173ffffffffffffffffffffffffffffffffffffffff021916908373ffffffffffffffffffffffffffffffffffffffff160217905550602082015181600101908162000910919062002bee565b506040820151816002015560608201518160030160006101000a81548160ff021916908315150217905550608082015181600401559050508273ffffffffffffffffffffffffffffffffffffffff16639dc29fac85886040518363ffffffff1660e01b81526004016200098592919062002cd5565b600060405180830381600087803b158015620009a057600080fd5b505af1158015620009b5573d6000803e3d6000fd5b505050508273ffffffffffffffffffffffffffffffffffffffff1663047fc9aa6040518163ffffffff1660e01b8152600401602060405180830381865afa15801562000a05573d6000803e3d6000fd5b505050506040513d601f19601f8201168201806040525081019062000a2b91906200290e565b600260008673ffffffffffffffffffffffffffffffffffffffff1673ffffffffffffffffffffffffffffffffffffffff168152602001908152602001600020819055505050505050505050565b600360205280600052604060002060009150905080600001805462000a9d9062002558565b80601f016020809104026020016040519081016040528092919081815260200182805462000acb9062002558565b801562000b1c5780601f1062000af05761010080835404028352916020019162000b1c565b820191906000526020600020905b81548152906001019060200180831162000afe57829003601f168201915b5050505050908060010160009054906101000a900473ffffffffffffffffffffffffffffffffffffffff169080600201805462000b599062002558565b80601f016020809104026020016040519081016040528092919081815260200182805462000b879062002558565b801562000bd85780601f1062000bac5761010080835404028352916020019162000bd8565b820191906000526020600020905b81548152906001019060200180831162000bba57829003601f168201915b5050505050908060030154908060040160009054906101000a900460ff16905085565b600560003373ffffffffffffffffffffffffffffffffffffffff1673ffffffffffffffffffffffffffffffffffffffff16815260200190815260200160002060030160009054906101000a900460ff1662000c8d576040517f08c379a000000000000000000000000000000000000000000000000000000000815260040162000c849062002d78565b60405180910390fd5b600073ffffffffffffffffffffffffffffffffffffffff163373ffffffffffffffffffffffffffffffffffffffff160362000cff576040517f08c379a000000000000000000000000000000000000000000000000000000000815260040162000cf69062002e10565b60405180910390fd5b6000600560003373ffffffffffffffffffffffffffffffffffffffff1673ffffffffffffffffffffffffffffffffffffffff168152602001908152602001600020600401541162000d87576040517f08c379a000000000000000000000000000000000000000000000000000000000815260040162000d7e9062002e82565b60405180910390fd5b42600560003373ffffffffffffffffffffffffffffffffffffffff1673ffffffffffffffffffffffffffffffffffffffff16815260200190815260200160002060020154111562000e0f576040517f08c379a000000000000000000000000000000000000000000000000000000000815260040162000e069062002f1a565b60405180910390fd5b6000600560003373ffffffffffffffffffffffffffffffffffffffff1673ffffffffffffffffffffffffffffffffffffffff1681526020019081526020016000206004015490506000600560003373ffffffffffffffffffffffffffffffffffffffff1673ffffffffffffffffffffffffffffffffffffffff16815260200190815260200160002060040181905550600060046000600560003373ffffffffffffffffffffffffffffffffffffffff1673ffffffffffffffffffffffffffffffffffffffff16815260200190815260200160002060000160009054906101000a900473ffffffffffffffffffffffffffffffffffffffff1673ffffffffffffffffffffffffffffffffffffffff1673ffffffffffffffffffffffffffffffffffffffff16815260200190815260200160002060009054906101000a900473ffffffffffffffffffffffffffffffffffffffff16905060008190508073ffffffffffffffffffffffffffffffffffffffff1663c32cefa133856040518363ffffffff1660e01b815260040162000fa692919062002cd5565b600060405180830381600087803b15801562000fc157600080fd5b505af115801562000fd6573d6000803e3d6000fd5b50505050505050565b6000818154811062000ff057600080fd5b906000526020600020016000915054906101000a900473ffffffffffffffffffffffffffffffffffffffff1681565b600073ffffffffffffffffffffffffffffffffffffffff163373ffffffffffffffffffffffffffffffffffffffff160362001091576040517f08c379a0000000000000000000000000000000000000000000000000000000008152600401620010889062002f8c565b60405180910390fd5b600160003373ffffffffffffffffffffffffffffffffffffffff1673ffffffffffffffffffffffffffffffffffffffff16815260200190815260200160002060009054906101000a900460ff161562001121576040517f08c379a0000000000000000000000000000000000000000000000000000000008152600401620011189062003024565b60405180910390fd5b60018060003373ffffffffffffffffffffffffffffffffffffffff1673ffffffffffffffffffffffffffffffffffffffff16815260200190815260200160002060006101000a81548160ff0219169083151502179055506000339080600181540180825580915050600190039060005260206000200160009091909190916101000a81548173ffffffffffffffffffffffffffffffffffffffff021916908373ffffffffffffffffffffffffffffffffffffffff160217905550565b6000600160003373ffffffffffffffffffffffffffffffffffffffff1673ffffffffffffffffffffffffffffffffffffffff16815260200190815260200160002060009054906101000a900460ff166200126e576040517f08c379a0000000000000000000000000000000000000000000000000000000008152600401620012659062002603565b60405180910390fd5b600360003373ffffffffffffffffffffffffffffffffffffffff1673ffffffffffffffffffffffffffffffffffffffff16815260200190815260200160002060040160009054906101000a900460ff161562001301576040517f08c379a0000000000000000000000000000000000000000000000000000000008152600401620012f89062003096565b60405180910390fd5b600084510362001348576040517f08c379a00000000000000000000000000000000000000000000000000000000081526004016200133f906200312e565b60405180910390fd5b60008351036200138f576040517f08c379a00000000000000000000000000000000000000000000000000000000081526004016200138690620031c6565b60405180910390fd5b600073ffffffffffffffffffffffffffffffffffffffff16600360003373ffffffffffffffffffffffffffffffffffffffff1673ffffffffffffffffffffffffffffffffffffffff16815260200190815260200160002060010160009054906101000a900473ffffffffffffffffffffffffffffffffffffffff1673ffffffffffffffffffffffffffffffffffffffff161462001463576040517f08c379a00000000000000000000000000000000000000000000000000000000081526004016200145a906200325e565b60405180910390fd5b6000848484604051620014769062001e4f565b620014849392919062003280565b604051809103906000f080158015620014a1573d6000803e3d6000fd5b5090506000819050600081905060008173ffffffffffffffffffffffffffffffffffffffff1663047fc9aa6040518163ffffffff1660e01b8152600401602060405180830381865afa158015620014fc573d6000803e3d6000fd5b505050506040513d601f19601f820116820180604052508101906200152291906200290e565b905080600260008573ffffffffffffffffffffffffffffffffffffffff1673ffffffffffffffffffffffffffffffffffffffff1681526020019081526020016000208190555082600460003373ffffffffffffffffffffffffffffffffffffffff1673ffffffffffffffffffffffffffffffffffffffff16815260200190815260200160002060006101000a81548173ffffffffffffffffffffffffffffffffffffffff021916908373ffffffffffffffffffffffffffffffffffffffff1602179055506040518060a001604052808981526020013373ffffffffffffffffffffffffffffffffffffffff16815260200188815260200182815260200160011515815250600360003373ffffffffffffffffffffffffffffffffffffffff1673ffffffffffffffffffffffffffffffffffffffff16815260200190815260200160002060008201518160000190816200167c919062002bee565b5060208201518160010160006101000a81548173ffffffffffffffffffffffffffffffffffffffff021916908373ffffffffffffffffffffffffffffffffffffffff1602179055506040820151816002019081620016db919062002bee565b506060820151816003015560808201518160040160006101000a81548160ff02191690831515021790555090505060019450505050509392505050565b600160003373ffffffffffffffffffffffffffffffffffffffff1673ffffffffffffffffffffffffffffffffffffffff16815260200190815260200160002060009054906101000a900460ff16620017a7576040517f08c379a00000000000000000000000000000000000000000000000000000000081526004016200179e9062002603565b60405180910390fd5b600073ffffffffffffffffffffffffffffffffffffffff168173ffffffffffffffffffffffffffffffffffffffff160362001819576040517f08c379a000000000000000000000000000000000000000000000000000000000815260040162001810906200270d565b60405180910390fd5b600560008273ffffffffffffffffffffffffffffffffffffffff1673ffffffffffffffffffffffffffffffffffffffff16815260200190815260200160002060030160009054906101000a900460ff1615620018ac576040517f08c379a0000000000000000000000000000000000000000000000000000000008152600401620018a39062003341565b60405180910390fd5b6001600560008373ffffffffffffffffffffffffffffffffffffffff1673ffffffffffffffffffffffffffffffffffffffff16815260200190815260200160002060030160006101000a81548160ff021916908315150217905550600660003373ffffffffffffffffffffffffffffffffffffffff1673ffffffffffffffffffffffffffffffffffffffff168152602001908152602001600020819080600181540180825580915050600190039060005260206000200160009091909190916101000a81548173ffffffffffffffffffffffffffffffffffffffff021916908373ffffffffffffffffffffffffffffffffffffffff16021790555050565b60046020528060005260406000206000915054906101000a900473ffffffffffffffffffffffffffffffffffffffff1681565b6060600080548060200260200160405190810160405280929190818152602001828054801562001a6357602002820191906000526020600020905b8160009054906101000a900473ffffffffffffffffffffffffffffffffffffffff1673ffffffffffffffffffffffffffffffffffffffff168152602001906001019080831162001a18575b5050505050905090565b600160003373ffffffffffffffffffffffffffffffffffffffff1673ffffffffffffffffffffffffffffffffffffffff16815260200190815260200160002060009054906101000a900460ff1662001afc576040517f08c379a000000000000000000000000000000000000000000000000000000000815260040162001af39062002603565b60405180910390fd5b600073ffffffffffffffffffffffffffffffffffffffff168173ffffffffffffffffffffffffffffffffffffffff160362001b6e576040517f08c379a000000000000000000000000000000000000000000000000000000000815260040162001b6590620033b3565b60405180910390fd5b6000600560008373ffffffffffffffffffffffffffffffffffffffff1673ffffffffffffffffffffffffffffffffffffffff168152602001908152602001600020600401541162001bf6576040517f08c379a000000000000000000000000000000000000000000000000000000000815260040162001bed9062002e82565b60405180910390fd5b42600560008373ffffffffffffffffffffffffffffffffffffffff1673ffffffffffffffffffffffffffffffffffffffff16815260200190815260200160002060020154111562001c7e576040517f08c379a000000000000000000000000000000000000000000000000000000000815260040162001c759062002f1a565b60405180910390fd5b6000600560008373ffffffffffffffffffffffffffffffffffffffff1673ffffffffffffffffffffffffffffffffffffffff1681526020019081526020016000206004015490506000600560008473ffffffffffffffffffffffffffffffffffffffff1673ffffffffffffffffffffffffffffffffffffffff16815260200190815260200160002060040181905550600060046000600560008673ffffffffffffffffffffffffffffffffffffffff1673ffffffffffffffffffffffffffffffffffffffff16815260200190815260200160002060000160009054906101000a900473ffffffffffffffffffffffffffffffffffffffff1673ffffffffffffffffffffffffffffffffffffffff1673ffffffffffffffffffffffffffffffffffffffff16815260200190815260200160002060009054906101000a900473ffffffffffffffffffffffffffffffffffffffff16905060008190508073ffffffffffffffffffffffffffffffffffffffff1663c32cefa185856040518363ffffffff1660e01b815260040162001e1592919062002cd5565b600060405180830381600087803b15801562001e3057600080fd5b505af115801562001e45573d6000803e3d6000fd5b5050505050505050565b6123ad80620033d683390190565b6000604051905090565b600080fd5b600080fd5b600073ffffffffffffffffffffffffffffffffffffffff82169050919050565b600062001e9e8262001e71565b9050919050565b62001eb08162001e91565b811462001ebc57600080fd5b50565b60008135905062001ed08162001ea5565b92915050565b60006020828403121562001eef5762001eee62001e67565b5b600062001eff8482850162001ebf565b91505092915050565b6000819050919050565b62001f1d8162001f08565b82525050565b600060208201905062001f3a600083018462001f12565b92915050565b62001f4b8162001f08565b811462001f5757600080fd5b50565b60008135905062001f6b8162001f40565b92915050565b6000806040838503121562001f8b5762001f8a62001e67565b5b600062001f9b8582860162001ebf565b925050602062001fae8582860162001f5a565b9150509250929050565b62001fc38162001e91565b82525050565b600060208201905062001fe0600083018462001fb8565b92915050565b600081519050919050565b600082825260208201905092915050565b60005b838110156200202257808201518184015260208101905062002005565b60008484015250505050565b6000601f19601f8301169050919050565b60006200204c8262001fe6565b62002058818562001ff1565b93506200206a81856020860162002002565b62002075816200202e565b840191505092915050565b60008115159050919050565b620020978162002080565b82525050565b600060a082019050620020b4600083018862001fb8565b8181036020830152620020c881876200203f565b9050620020d9604083018662001f12565b620020e860608301856200208c565b620020f7608083018462001f12565b9695505050505050565b600080fd5b600080fd5b7f4e487b7100000000000000000000000000000000000000000000000000000000600052604160045260246000fd5b62002145826200202e565b810181811067ffffffffffffffff821117156200216757620021666200210b565b5b80604052505050565b60006200217c62001e5d565b90506200218a82826200213a565b919050565b600067ffffffffffffffff821115620021ad57620021ac6200210b565b5b620021b8826200202e565b9050602081019050919050565b82818337600083830152505050565b6000620021eb620021e5846200218f565b62002170565b9050828152602081018484840111156200220a576200220962002106565b5b62002217848285620021c5565b509392505050565b600082601f83011262002237576200223662002101565b5b813562002249848260208601620021d4565b91505092915050565b600080600080608085870312156200226f576200226e62001e67565b5b60006200227f8782880162001ebf565b945050602085013567ffffffffffffffff811115620022a357620022a262001e6c565b5b620022b1878288016200221f565b9350506040620022c48782880162001f5a565b9250506060620022d78782880162001f5a565b91505092959194509250565b600060a0820190508181036000830152620022ff81886200203f565b905062002310602083018762001fb8565b81810360408301526200232481866200203f565b905062002335606083018562001f12565b6200234460808301846200208c565b9695505050505050565b60006020828403121562002367576200236662001e67565b5b6000620023778482850162001f5a565b91505092915050565b6000806000606084860312156200239c576200239b62001e67565b5b600084013567ffffffffffffffff811115620023bd57620023bc62001e6c565b5b620023cb868287016200221f565b935050602084013567ffffffffffffffff811115620023ef57620023ee62001e6c565b5b620023fd868287016200221f565b9250506040620024108682870162001f5a565b9150509250925092565b60006020820190506200243160008301846200208c565b92915050565b600081519050919050565b600082825260208201905092915050565b6000819050602082019050919050565b6200246e8162001e91565b82525050565b600062002482838362002463565b60208301905092915050565b6000602082019050919050565b6000620024a88262002437565b620024b4818562002442565b9350620024c18362002453565b8060005b83811015620024f8578151620024dc888262002474565b9750620024e9836200248e565b925050600181019050620024c5565b5085935050505092915050565b600060208201905081810360008301526200252181846200249b565b905092915050565b7f4e487b7100000000000000000000000000000000000000000000000000000000600052602260045260246000fd5b600060028204905060018216806200257157607f821691505b60208210810362002587576200258662002529565b5b50919050565b7f4f6e6c7920612072656769737465726564206f7267616e697a6174696f6e206360008201527f616e20706572666f726d207468697320616374696f6e2e000000000000000000602082015250565b6000620025eb60378362001ff1565b9150620025f8826200258d565b604082019050919050565b600060208201905081810360008301526200261e81620025dc565b9050919050565b7f4f6e6c7920612072656769737465726564206f7267616e697a6174696f6e206360008201527f616e207365742076657374696e672064657461696c732e000000000000000000602082015250565b60006200268360378362001ff1565b9150620026908262002625565b604082019050919050565b60006020820190508181036000830152620026b68162002674565b9050919050565b7f496e76616c6964207374616b65686f6c64657220616464726573732e00000000600082015250565b6000620026f5601c8362001ff1565b91506200270282620026bd565b602082019050919050565b600060208201905081810360008301526200272881620026e6565b9050919050565b7f50726f7669646520612076616c6964207374616b65686f6c646572207479706560008201527f2e00000000000000000000000000000000000000000000000000000000000000602082015250565b60006200278d60218362001ff1565b91506200279a826200272f565b604082019050919050565b60006020820190508181036000830152620027c0816200277e565b9050919050565b7f56657374696e6720706572696f64206d7573742062652067726561746572207460008201527f68616e207a65726f2e0000000000000000000000000000000000000000000000602082015250565b60006200282560298362001ff1565b91506200283282620027c7565b604082019050919050565b60006020820190508181036000830152620028588162002816565b9050919050565b7f546f6b656e206e6f7420666f756e6420666f7220746865206f7267616e69736160008201527f74696f6e2e000000000000000000000000000000000000000000000000000000602082015250565b6000620028bd60258362001ff1565b9150620028ca826200285f565b604082019050919050565b60006020820190508181036000830152620028f081620028ae565b9050919050565b600081519050620029088162001f40565b92915050565b60006020828403121562002927576200292662001e67565b5b60006200293784828501620028f7565b91505092915050565b7f4f7267616e69736174696f6e206973206f7574206f6620746f6b656e732e0000600082015250565b600062002978601e8362001ff1565b9150620029858262002940565b602082019050919050565b60006020820190508181036000830152620029ab8162002969565b9050919050565b7f4e487b7100000000000000000000000000000000000000000000000000000000600052601160045260246000fd5b6000620029ee8262001f08565b9150620029fb8362001f08565b925082820190508082111562002a165762002a15620029b2565b5b92915050565b60008190508160005260206000209050919050565b60006020601f8301049050919050565b600082821b905092915050565b60006008830262002a807fffffffffffffffffffffffffffffffffffffffffffffffffffffffffffffffff8262002a41565b62002a8c868362002a41565b95508019841693508086168417925050509392505050565b6000819050919050565b600062002acf62002ac962002ac38462001f08565b62002aa4565b62001f08565b9050919050565b6000819050919050565b62002aeb8362002aae565b62002b0362002afa8262002ad6565b84845462002a4e565b825550505050565b600090565b62002b1a62002b0b565b62002b2781848462002ae0565b505050565b5b8181101562002b4f5762002b4360008262002b10565b60018101905062002b2d565b5050565b601f82111562002b9e5762002b688162002a1c565b62002b738462002a31565b8101602085101562002b83578190505b62002b9b62002b928562002a31565b83018262002b2c565b50505b505050565b600082821c905092915050565b600062002bc36000198460080262002ba3565b1980831691505092915050565b600062002bde838362002bb0565b9150826002028217905092915050565b62002bf98262001fe6565b67ffffffffffffffff81111562002c155762002c146200210b565b5b62002c21825462002558565b62002c2e82828562002b53565b600060209050601f83116001811462002c66576000841562002c51578287015190505b62002c5d858262002bd0565b86555062002ccd565b601f19841662002c768662002a1c565b60005b8281101562002ca05784890151825560018201915060208501945060208101905062002c79565b8683101562002cc0578489015162002cbc601f89168262002bb0565b8355505b6001600288020188555050505b505050505050565b600060408201905062002cec600083018562001fb8565b62002cfb602083018462001f12565b9392505050565b7f4f6e6c792077686974656c6973746564207374616b65686f6c6465727320636160008201527f6e20706572666f726d207468697320616374696f6e2e00000000000000000000602082015250565b600062002d6060368362001ff1565b915062002d6d8262002d02565b604082019050919050565b6000602082019050818103600083015262002d938162002d51565b9050919050565b7f5468652061646472657373206973206e6f7420612076616c696420616464726560008201527f73732e0000000000000000000000000000000000000000000000000000000000602082015250565b600062002df860238362001ff1565b915062002e058262002d9a565b604082019050919050565b6000602082019050818103600083015262002e2b8162002de9565b9050919050565b7f4e6f20746f6b656e7320617661696c61626c6520746f20636c61696d2e000000600082015250565b600062002e6a601d8362001ff1565b915062002e778262002e32565b602082019050919050565b6000602082019050818103600083015262002e9d8162002e5b565b9050919050565b7f56657374696e6720706572696f64206e6f742079657420636f6d706c6574656460008201527f2e00000000000000000000000000000000000000000000000000000000000000602082015250565b600062002f0260218362001ff1565b915062002f0f8262002ea4565b604082019050919050565b6000602082019050818103600083015262002f358162002ef3565b9050919050565b7f496e76616c696420616464726573730000000000000000000000000000000000600082015250565b600062002f74600f8362001ff1565b915062002f818262002f3c565b602082019050919050565b6000602082019050818103600083015262002fa78162002f65565b9050919050565b7f4f7267616e697a6174696f6e2068617320616c7265616479206265656e20726560008201527f6769737465726564000000000000000000000000000000000000000000000000602082015250565b60006200300c60288362001ff1565b9150620030198262002fae565b604082019050919050565b600060208201905081810360008301526200303f8162002ffd565b9050919050565b7f4f7267616e69736174696f6e20616c7265616479207265676973746572656400600082015250565b60006200307e601f8362001ff1565b91506200308b8262003046565b602082019050919050565b60006020820190508181036000830152620030b1816200306f565b9050919050565b7f50726f7669646520612076616c6964206f7267616e69736174696f6e206e616d60008201527f6500000000000000000000000000000000000000000000000000000000000000602082015250565b60006200311660218362001ff1565b91506200312382620030b8565b604082019050919050565b60006020820190508181036000830152620031498162003107565b9050919050565b7f50726f76696465206120746f6b656e206e616d652c20692e652e2c20616e206160008201527f6262726576696174696f6e000000000000000000000000000000000000000000602082015250565b6000620031ae602b8362001ff1565b9150620031bb8262003150565b604082019050919050565b60006020820190508181036000830152620031e1816200319f565b9050919050565b7f416e206f7267616e69736174696f6e2068617320616c726561647920676f6e6560008201527f2062792074686174206164647265737300000000000000000000000000000000602082015250565b60006200324660308362001ff1565b91506200325382620031e8565b604082019050919050565b60006020820190508181036000830152620032798162003237565b9050919050565b600060608201905081810360008301526200329c81866200203f565b90508181036020830152620032b281856200203f565b9050620032c3604083018462001f12565b949350505050565b7f5374616b65686f6c6465722068617320616c7265616479206265656e2077686960008201527f74656c69737465642e0000000000000000000000000000000000000000000000602082015250565b60006200332960298362001ff1565b91506200333682620032cb565b604082019050919050565b600060208201905081810360008301526200335c816200331a565b9050919050565b7f50726f7669646520612076616c69642061646472657373000000000000000000600082015250565b60006200339b60178362001ff1565b9150620033a88262003363565b602082019050919050565b60006020820190508181036000830152620033ce816200338c565b905091905056fe60806040523480156200001157600080fd5b50604051620023ad380380620023ad8339818101604052810190620000379190620003c6565b828281600390816200004a9190620006a1565b5080600490816200005c9190620006a1565b5050506200007130826200008160201b60201c565b80600581905550505050620008a3565b600073ffffffffffffffffffffffffffffffffffffffff168273ffffffffffffffffffffffffffffffffffffffff1603620000f3576040517f08c379a0000000000000000000000000000000000000000000000000000000008152600401620000ea90620007e9565b60405180910390fd5b6200010760008383620001ee60201b60201c565b80600260008282546200011b91906200083a565b92505081905550806000808473ffffffffffffffffffffffffffffffffffffffff1673ffffffffffffffffffffffffffffffffffffffff168152602001908152602001600020600082825401925050819055508173ffffffffffffffffffffffffffffffffffffffff16600073ffffffffffffffffffffffffffffffffffffffff167fddf252ad1be2c89b69c2b068fc378daa952ba7f163c4a11628f55a4df523b3ef83604051620001ce919062000886565b60405180910390a3620001ea60008383620001f360201b60201c565b5050565b505050565b505050565b6000604051905090565b600080fd5b600080fd5b600080fd5b600080fd5b6000601f19601f8301169050919050565b7f4e487b7100000000000000000000000000000000000000000000000000000000600052604160045260246000fd5b620002618262000216565b810181811067ffffffffffffffff8211171562000283576200028262000227565b5b80604052505050565b600062000298620001f8565b9050620002a6828262000256565b919050565b600067ffffffffffffffff821115620002c957620002c862000227565b5b620002d48262000216565b9050602081019050919050565b60005b8381101562000301578082015181840152602081019050620002e4565b60008484015250505050565b6000620003246200031e84620002ab565b6200028c565b90508281526020810184848401111562000343576200034262000211565b5b62000350848285620002e1565b509392505050565b600082601f83011262000370576200036f6200020c565b5b8151620003828482602086016200030d565b91505092915050565b6000819050919050565b620003a0816200038b565b8114620003ac57600080fd5b50565b600081519050620003c08162000395565b92915050565b600080600060608486031215620003e257620003e162000202565b5b600084015167ffffffffffffffff81111562000403576200040262000207565b5b620004118682870162000358565b935050602084015167ffffffffffffffff81111562000435576200043462000207565b5b620004438682870162000358565b92505060406200045686828701620003af565b9150509250925092565b600081519050919050565b7f4e487b7100000000000000000000000000000000000000000000000000000000600052602260045260246000fd5b60006002820490506001821680620004b357607f821691505b602082108103620004c957620004c86200046b565b5b50919050565b60008190508160005260206000209050919050565b60006020601f8301049050919050565b600082821b905092915050565b600060088302620005337fffffffffffffffffffffffffffffffffffffffffffffffffffffffffffffffff82620004f4565b6200053f8683620004f4565b95508019841693508086168417925050509392505050565b6000819050919050565b6000620005826200057c62000576846200038b565b62000557565b6200038b565b9050919050565b6000819050919050565b6200059e8362000561565b620005b6620005ad8262000589565b84845462000501565b825550505050565b600090565b620005cd620005be565b620005da81848462000593565b505050565b5b818110156200060257620005f6600082620005c3565b600181019050620005e0565b5050565b601f82111562000651576200061b81620004cf565b6200062684620004e4565b8101602085101562000636578190505b6200064e6200064585620004e4565b830182620005df565b50505b505050565b600082821c905092915050565b6000620006766000198460080262000656565b1980831691505092915050565b600062000691838362000663565b9150826002028217905092915050565b620006ac8262000460565b67ffffffffffffffff811115620006c857620006c762000227565b5b620006d482546200049a565b620006e182828562000606565b600060209050601f83116001811462000719576000841562000704578287015190505b62000710858262000683565b86555062000780565b601f1984166200072986620004cf565b60005b8281101562000753578489015182556001820191506020850194506020810190506200072c565b868310156200077357848901516200076f601f89168262000663565b8355505b6001600288020188555050505b505050505050565b600082825260208201905092915050565b7f45524332303a206d696e7420746f20746865207a65726f206164647265737300600082015250565b6000620007d1601f8362000788565b9150620007de8262000799565b602082019050919050565b600060208201905081810360008301526200080481620007c2565b9050919050565b7f4e487b7100000000000000000000000000000000000000000000000000000000600052601160045260246000fd5b600062000847826200038b565b915062000854836200038b565b92508282019050808211156200086f576200086e6200080b565b5b92915050565b62000880816200038b565b82525050565b60006020820190506200089d600083018462000875565b92915050565b611afa80620008b36000396000f3fe608060405234801561001057600080fd5b506004361061012c5760003560e01c806379cc6790116100ad578063a9059cbb11610071578063a9059cbb14610359578063c32cefa114610389578063dd62ed3e146103a5578063e3d670d7146103d5578063f8b2cb4f146104055761012c565b806379cc6790146102b557806395d89b41146102d15780639dc29fac146102ef578063a44b47f71461030b578063a457c2d7146103295761012c565b806327e235e3116100f457806327e235e3146101eb578063313ce5671461021b578063395093511461023957806342966c681461026957806370a08231146102855761012c565b8063047fc9aa1461013157806306fdde031461014f578063095ea7b31461016d57806318160ddd1461019d57806323b872dd146101bb575b600080fd5b610139610435565b6040516101469190611103565b60405180910390f35b61015761043f565b60405161016491906111ae565b60405180910390f35b6101876004803603810190610182919061125f565b6104d1565b60405161019491906112ba565b60405180910390f35b6101a56104f4565b6040516101b29190611103565b60405180910390f35b6101d560048036038101906101d091906112d5565b6104fe565b6040516101e291906112ba565b60405180910390f35b61020560048036038101906102009190611328565b61052d565b6040516102129190611103565b60405180910390f35b610223610545565b6040516102309190611371565b60405180910390f35b610253600480360381019061024e919061125f565b61054e565b60405161026091906112ba565b60405180910390f35b610283600480360381019061027e919061138c565b610585565b005b61029f600480360381019061029a9190611328565b610599565b6040516102ac9190611103565b60405180910390f35b6102cf60048036038101906102ca919061125f565b6105e1565b005b6102d9610601565b6040516102e691906111ae565b60405180910390f35b6103096004803603810190610304919061125f565b610693565b005b6103136107aa565b6040516103209190611103565b60405180910390f35b610343600480360381019061033e919061125f565b6107b0565b60405161035091906112ba565b60405180910390f35b610373600480360381019061036e919061125f565b610827565b60405161038091906112ba565b60405180910390f35b6103a3600480360381019061039e919061125f565b61084a565b005b6103bf60048036038101906103ba91906113b9565b610958565b6040516103cc9190611103565b60405180910390f35b6103ef60048036038101906103ea9190611328565b6109df565b6040516103fc9190611103565b60405180910390f35b61041f600480360381019061041a9190611328565b6109f7565b60405161042c9190611103565b60405180910390f35b6000600554905090565b60606003805461044e90611428565b80601f016020809104026020016040519081016040528092919081815260200182805461047a90611428565b80156104c75780601f1061049c576101008083540402835291602001916104c7565b820191906000526020600020905b8154815290600101906020018083116104aa57829003601f168201915b5050505050905090565b6000806104dc610a40565b90506104e9818585610a48565b600191505092915050565b6000600254905090565b600080610509610a40565b9050610516858285610c11565b610521858585610c9d565b60019150509392505050565b60076020528060005260406000206000915090505481565b60006012905090565b600080610559610a40565b905061057a81858561056b8589610958565b6105759190611488565b610a48565b600191505092915050565b610596610590610a40565b82610f13565b50565b60008060008373ffffffffffffffffffffffffffffffffffffffff1673ffffffffffffffffffffffffffffffffffffffff168152602001908152602001600020549050919050565b6105f3826105ed610a40565b83610c11565b6105fd8282610f13565b5050565b60606004805461061090611428565b80601f016020809104026020016040519081016040528092919081815260200182805461063c90611428565b80156106895780601f1061065e57610100808354040283529160200191610689565b820191906000526020600020905b81548152906001019060200180831161066c57829003601f168201915b5050505050905090565b600073ffffffffffffffffffffffffffffffffffffffff168273ffffffffffffffffffffffffffffffffffffffff1603610702576040517f08c379a00000000000000000000000000000000000000000000000000000000081526004016106f990611508565b60405180910390fd5b600554811115610747576040517f08c379a000000000000000000000000000000000000000000000000000000000815260040161073e90611574565b60405180910390fd5b80600560008282546107599190611594565b92505081905550600554600660008473ffffffffffffffffffffffffffffffffffffffff1673ffffffffffffffffffffffffffffffffffffffff168152602001908152602001600020819055505050565b60055481565b6000806107bb610a40565b905060006107c98286610958565b90508381101561080e576040517f08c379a00000000000000000000000000000000000000000000000000000000081526004016108059061163a565b60405180910390fd5b61081b8286868403610a48565b60019250505092915050565b600080610832610a40565b905061083f818585610c9d565b600191505092915050565b600073ffffffffffffffffffffffffffffffffffffffff168273ffffffffffffffffffffffffffffffffffffffff16036108b9576040517f08c379a00000000000000000000000000000000000000000000000000000000081526004016108b090611508565b60405180910390fd5b6005548111156108fe576040517f08c379a00000000000000000000000000000000000000000000000000000000081526004016108f590611574565b60405180910390fd5b80600760008473ffffffffffffffffffffffffffffffffffffffff1673ffffffffffffffffffffffffffffffffffffffff168152602001908152602001600020600082825461094d9190611488565b925050819055505050565b6000600160008473ffffffffffffffffffffffffffffffffffffffff1673ffffffffffffffffffffffffffffffffffffffff16815260200190815260200160002060008373ffffffffffffffffffffffffffffffffffffffff1673ffffffffffffffffffffffffffffffffffffffff16815260200190815260200160002054905092915050565b60066020528060005260406000206000915090505481565b6000600760008373ffffffffffffffffffffffffffffffffffffffff1673ffffffffffffffffffffffffffffffffffffffff168152602001908152602001600020549050919050565b600033905090565b600073ffffffffffffffffffffffffffffffffffffffff168373ffffffffffffffffffffffffffffffffffffffff1603610ab7576040517f08c379a0000000000000000000000000000000000000000000000000000000008152600401610aae906116cc565b60405180910390fd5b600073ffffffffffffffffffffffffffffffffffffffff168273ffffffffffffffffffffffffffffffffffffffff1603610b26576040517f08c379a0000000000000000000000000000000000000000000000000000000008152600401610b1d9061175e565b60405180910390fd5b80600160008573ffffffffffffffffffffffffffffffffffffffff1673ffffffffffffffffffffffffffffffffffffffff16815260200190815260200160002060008473ffffffffffffffffffffffffffffffffffffffff1673ffffffffffffffffffffffffffffffffffffffff168152602001908152602001600020819055508173ffffffffffffffffffffffffffffffffffffffff168373ffffffffffffffffffffffffffffffffffffffff167f8c5be1e5ebec7d5bd14f71427d1e84f3dd0314c0f7b2291e5b200ac8c7c3b92583604051610c049190611103565b60405180910390a3505050565b6000610c1d8484610958565b90507fffffffffffffffffffffffffffffffffffffffffffffffffffffffffffffffff8114610c975781811015610c89576040517f08c379a0000000000000000000000000000000000000000000000000000000008152600401610c80906117ca565b60405180910390fd5b610c968484848403610a48565b5b50505050565b600073ffffffffffffffffffffffffffffffffffffffff168373ffffffffffffffffffffffffffffffffffffffff1603610d0c576040517f08c379a0000000000000000000000000000000000000000000000000000000008152600401610d039061185c565b60405180910390fd5b600073ffffffffffffffffffffffffffffffffffffffff168273ffffffffffffffffffffffffffffffffffffffff1603610d7b576040517f08c379a0000000000000000000000000000000000000000000000000000000008152600401610d72906118ee565b60405180910390fd5b610d868383836110e0565b60008060008573ffffffffffffffffffffffffffffffffffffffff1673ffffffffffffffffffffffffffffffffffffffff16815260200190815260200160002054905081811015610e0c576040517f08c379a0000000000000000000000000000000000000000000000000000000008152600401610e0390611980565b60405180910390fd5b8181036000808673ffffffffffffffffffffffffffffffffffffffff1673ffffffffffffffffffffffffffffffffffffffff16815260200190815260200160002081905550816000808573ffffffffffffffffffffffffffffffffffffffff1673ffffffffffffffffffffffffffffffffffffffff168152602001908152602001600020600082825401925050819055508273ffffffffffffffffffffffffffffffffffffffff168473ffffffffffffffffffffffffffffffffffffffff167fddf252ad1be2c89b69c2b068fc378daa952ba7f163c4a11628f55a4df523b3ef84604051610efa9190611103565b60405180910390a3610f0d8484846110e5565b50505050565b600073ffffffffffffffffffffffffffffffffffffffff168273ffffffffffffffffffffffffffffffffffffffff1603610f82576040517f08c379a0000000000000000000000000000000000000000000000000000000008152600401610f7990611a12565b60405180910390fd5b610f8e826000836110e0565b60008060008473ffffffffffffffffffffffffffffffffffffffff1673ffffffffffffffffffffffffffffffffffffffff16815260200190815260200160002054905081811015611014576040517f08c379a000000000000000000000000000000000000000000000000000000000815260040161100b90611aa4565b60405180910390fd5b8181036000808573ffffffffffffffffffffffffffffffffffffffff1673ffffffffffffffffffffffffffffffffffffffff1681526020019081526020016000208190555081600260008282540392505081905550600073ffffffffffffffffffffffffffffffffffffffff168373ffffffffffffffffffffffffffffffffffffffff167fddf252ad1be2c89b69c2b068fc378daa952ba7f163c4a11628f55a4df523b3ef846040516110c79190611103565b60405180910390a36110db836000846110e5565b505050565b505050565b505050565b6000819050919050565b6110fd816110ea565b82525050565b600060208201905061111860008301846110f4565b92915050565b600081519050919050565b600082825260208201905092915050565b60005b8381101561115857808201518184015260208101905061113d565b60008484015250505050565b6000601f19601f8301169050919050565b60006111808261111e565b61118a8185611129565b935061119a81856020860161113a565b6111a381611164565b840191505092915050565b600060208201905081810360008301526111c88184611175565b905092915050565b600080fd5b600073ffffffffffffffffffffffffffffffffffffffff82169050919050565b6000611200826111d5565b9050919050565b611210816111f5565b811461121b57600080fd5b50565b60008135905061122d81611207565b92915050565b61123c816110ea565b811461124757600080fd5b50565b60008135905061125981611233565b92915050565b60008060408385031215611276576112756111d0565b5b60006112848582860161121e565b92505060206112958582860161124a565b9150509250929050565b60008115159050919050565b6112b48161129f565b82525050565b60006020820190506112cf60008301846112ab565b92915050565b6000806000606084860312156112ee576112ed6111d0565b5b60006112fc8682870161121e565b935050602061130d8682870161121e565b925050604061131e8682870161124a565b9150509250925092565b60006020828403121561133e5761133d6111d0565b5b600061134c8482850161121e565b91505092915050565b600060ff82169050919050565b61136b81611355565b82525050565b60006020820190506113866000830184611362565b92915050565b6000602082840312156113a2576113a16111d0565b5b60006113b08482850161124a565b91505092915050565b600080604083850312156113d0576113cf6111d0565b5b60006113de8582860161121e565b92505060206113ef8582860161121e565b9150509250929050565b7f4e487b7100000000000000000000000000000000000000000000000000000000600052602260045260246000fd5b6000600282049050600182168061144057607f821691505b602082108103611453576114526113f9565b5b50919050565b7f4e487b7100000000000000000000000000000000000000000000000000000000600052601160045260246000fd5b6000611493826110ea565b915061149e836110ea565b92508282019050808211156114b6576114b5611459565b5b92915050565b7f41646472657373206e6f742076616c6964000000000000000000000000000000600082015250565b60006114f2601183611129565b91506114fd826114bc565b602082019050919050565b60006020820190508181036000830152611521816114e5565b9050919050565b7f56616c7565206578636565647320746f74616c20737570706c79000000000000600082015250565b600061155e601a83611129565b915061156982611528565b602082019050919050565b6000602082019050818103600083015261158d81611551565b9050919050565b600061159f826110ea565b91506115aa836110ea565b92508282039050818111156115c2576115c1611459565b5b92915050565b7f45524332303a2064656372656173656420616c6c6f77616e63652062656c6f7760008201527f207a65726f000000000000000000000000000000000000000000000000000000602082015250565b6000611624602583611129565b915061162f826115c8565b604082019050919050565b6000602082019050818103600083015261165381611617565b9050919050565b7f45524332303a20617070726f76652066726f6d20746865207a65726f2061646460008201527f7265737300000000000000000000000000000000000000000000000000000000602082015250565b60006116b6602483611129565b91506116c18261165a565b604082019050919050565b600060208201905081810360008301526116e5816116a9565b9050919050565b7f45524332303a20617070726f766520746f20746865207a65726f20616464726560008201527f7373000000000000000000000000000000000000000000000000000000000000602082015250565b6000611748602283611129565b9150611753826116ec565b604082019050919050565b600060208201905081810360008301526117778161173b565b9050919050565b7f45524332303a20696e73756666696369656e7420616c6c6f77616e6365000000600082015250565b60006117b4601d83611129565b91506117bf8261177e565b602082019050919050565b600060208201905081810360008301526117e3816117a7565b9050919050565b7f45524332303a207472616e736665722066726f6d20746865207a65726f20616460008201527f6472657373000000000000000000000000000000000000000000000000000000602082015250565b6000611846602583611129565b9150611851826117ea565b604082019050919050565b6000602082019050818103600083015261187581611839565b9050919050565b7f45524332303a207472616e7366657220746f20746865207a65726f206164647260008201527f6573730000000000000000000000000000000000000000000000000000000000602082015250565b60006118d8602383611129565b91506118e38261187c565b604082019050919050565b60006020820190508181036000830152611907816118cb565b9050919050565b7f45524332303a207472616e7366657220616d6f756e742065786365656473206260008201527f616c616e63650000000000000000000000000000000000000000000000000000602082015250565b600061196a602683611129565b91506119758261190e565b604082019050919050565b600060208201905081810360008301526119998161195d565b9050919050565b7f45524332303a206275726e2066726f6d20746865207a65726f2061646472657360008201527f7300000000000000000000000000000000000000000000000000000000000000602082015250565b60006119fc602183611129565b9150611a07826119a0565b604082019050919050565b60006020820190508181036000830152611a2b816119ef565b9050919050565b7f45524332303a206275726e20616d6f756e7420657863656564732062616c616e60008201527f6365000000000000000000000000000000000000000000000000000000000000602082015250565b6000611a8e602283611129565b9150611a9982611a32565b604082019050919050565b60006020820190508181036000830152611abd81611a81565b905091905056fea2646970667358221220f77929f0b749ff7b948a41d8a0bbdbe21ecb505bd4922699eb26a29e9523e5b864736f6c63430008120033a2646970667358221220bad3424dcbff5147b9dbce33757f4304df30e2f855db93e7648f5a85f21539c464736f6c63430008120033",
  "linkReferences": {},
  "deployedLinkReferences": {}
}